{"contracts/NeuralPrediction.sol":{"NeuralPrediction":{"abi":[{"inputs":[{"internalType":"address","name":"_neuralToken","type":"address"},{"internalType":"uint256","name":"_initialPrice","type":"uint256"}],"stateMutability":"nonpayable","type":"constructor"},{"inputs":[{"internalType":"address","name":"owner","type":"address"}],"name":"OwnableInvalidOwner","type":"error"},{"inputs":[{"internalType":"address","name":"account","type":"address"}],"name":"OwnableUnauthorizedAccount","type":"error"},{"inputs":[],"name":"ReentrancyGuardReentrantCall","type":"error"},{"anonymous":false,"inputs":[{"indexed":true,"internalType":"address","name":"owner","type":"address"},{"indexed":false,"internalType":"uint256","name":"amount","type":"uint256"}],"name":"FeesWithdrawn","type":"event"},{"anonymous":false,"inputs":[{"indexed":true,"internalType":"address","name":"newOracle","type":"address"}],"name":"OracleUpdated","type":"event"},{"anonymous":false,"inputs":[{"indexed":true,"internalType":"address","name":"previousOwner","type":"address"},{"indexed":true,"internalType":"address","name":"newOwner","type":"address"}],"name":"OwnershipTransferred","type":"event"},{"anonymous":false,"inputs":[{"indexed":true,"internalType":"address","name":"user","type":"address"},{"indexed":true,"internalType":"uint256","name":"round","type":"uint256"},{"indexed":false,"internalType":"uint256","name":"amount","type":"uint256"},{"indexed":false,"internalType":"bool","name":"isUp","type":"bool"},{"indexed":false,"internalType":"uint256","name":"predictionId","type":"uint256"},{"indexed":false,"internalType":"uint256","name":"entryPrice","type":"uint256"}],"name":"PredictionMade","type":"event"},{"anonymous":false,"inputs":[{"indexed":false,"internalType":"uint256","name":"newPrice","type":"uint256"},{"indexed":true,"internalType":"address","name":"updater","type":"address"}],"name":"PriceUpdated","type":"event"},{"anonymous":false,"inputs":[{"indexed":true,"internalType":"address","name":"user","type":"address"},{"indexed":true,"internalType":"uint256","name":"predictionId","type":"uint256"},{"indexed":false,"internalType":"uint256","name":"amount","type":"uint256"},{"indexed":false,"internalType":"bool","name":"won","type":"bool"}],"name":"RewardsClaimed","type":"event"},{"anonymous":false,"inputs":[{"indexed":true,"internalType":"uint256","name":"round","type":"uint256"},{"indexed":false,"internalType":"uint256","name":"startPrice","type":"uint256"},{"indexed":false,"internalType":"uint256","name":"endPrice","type":"uint256"},{"indexed":false,"internalType":"bool","name":"priceWentUp","type":"bool"}],"name":"RoundResolved","type":"event"},{"inputs":[],"name":"FEE_DENOMINATOR","outputs":[{"internalType":"uint256","name":"","type":"uint256"}],"stateMutability":"view","type":"function"},{"inputs":[],"name":"FEE_PERCENTAGE","outputs":[{"internalType":"uint256","name":"","type":"uint256"}],"stateMutability":"view","type":"function"},{"inputs":[],"name":"LOCK_DURATION","outputs":[{"internalType":"uint256","name":"","type":"uint256"}],"stateMutability":"view","type":"function"},{"inputs":[],"name":"MAX_STAKE","outputs":[{"internalType":"uint256","name":"","type":"uint256"}],"stateMutability":"view","type":"function"},{"inputs":[],"name":"MIN_STAKE","outputs":[{"internalType":"uint256","name":"","type":"uint256"}],"stateMutability":"view","type":"function"},{"inputs":[],"name":"PRICE_DECIMALS","outputs":[{"internalType":"uint256","name":"","type":"uint256"}],"stateMutability":"view","type":"function"},{"inputs":[],"name":"ROUND_DURATION","outputs":[{"internalType":"uint256","name":"","type":"uint256"}],"stateMutability":"view","type":"function"},{"inputs":[{"internalType":"uint256[]","name":"_prices","type":"uint256[]"}],"name":"batchUpdatePrice","outputs":[],"stateMutability":"nonpayable","type":"function"},{"inputs":[{"internalType":"uint256","name":"_predictionId","type":"uint256"}],"name":"claimRewards","outputs":[],"stateMutability":"nonpayable","type":"function"},{"inputs":[],"name":"currentPrice","outputs":[{"internalType":"uint256","name":"","type":"uint256"}],"stateMutability":"view","type":"function"},{"inputs":[],"name":"currentRound","outputs":[{"internalType":"uint256","name":"","type":"uint256"}],"stateMutability":"view","type":"function"},{"inputs":[],"name":"getCurrentPrice","outputs":[{"internalType":"uint256","name":"","type":"uint256"}],"stateMutability":"view","type":"function"},{"inputs":[{"internalType":"uint256","name":"_predictionId","type":"uint256"}],"name":"getPredictionResult","outputs":[{"internalType":"bool","name":"isWinning","type":"bool"},{"internalType":"bool","name":"isResolved","type":"bool"},{"internalType":"uint256","name":"entryPrice","type":"uint256"},{"internalType":"uint256","name":"currentOrEndPrice","type":"uint256"}],"stateMutability":"view","type":"function"},{"inputs":[{"internalType":"uint256","name":"_roundId","type":"uint256"}],"name":"getRoundStats","outputs":[{"internalType":"uint256","name":"totalStaked","type":"uint256"},{"internalType":"uint256","name":"upStake","type":"uint256"},{"internalType":"uint256","name":"downStake","type":"uint256"},{"internalType":"uint256","name":"participants","type":"uint256"},{"internalType":"bool","name":"isResolved","type":"bool"},{"internalType":"uint256","name":"startPrice","type":"uint256"},{"internalType":"uint256","name":"endPrice","type":"uint256"}],"stateMutability":"view","type":"function"},{"inputs":[{"internalType":"address","name":"_user","type":"address"}],"name":"getUserActivePredictions","outputs":[{"internalType":"uint256[]","name":"","type":"uint256[]"}],"stateMutability":"view","type":"function"},{"inputs":[{"internalType":"address","name":"_user","type":"address"}],"name":"getUserStats","outputs":[{"internalType":"uint256","name":"totalStaked","type":"uint256"},{"internalType":"uint256","name":"totalWinnings","type":"uint256"},{"internalType":"uint256","name":"winStreak","type":"uint256"},{"internalType":"uint256","name":"activePredictions","type":"uint256"}],"stateMutability":"view","type":"function"},{"inputs":[{"internalType":"uint256","name":"_amount","type":"uint256"},{"internalType":"bool","name":"_isUp","type":"bool"}],"name":"makePrediction","outputs":[],"stateMutability":"nonpayable","type":"function"},{"inputs":[],"name":"neuralToken","outputs":[{"internalType":"contract IERC20","name":"","type":"address"}],"stateMutability":"view","type":"function"},{"inputs":[],"name":"nextPredictionId","outputs":[{"internalType":"uint256","name":"","type":"uint256"}],"stateMutability":"view","type":"function"},{"inputs":[],"name":"owner","outputs":[{"internalType":"address","name":"","type":"address"}],"stateMutability":"view","type":"function"},{"inputs":[{"internalType":"uint256","name":"","type":"uint256"}],"name":"predictions","outputs":[{"internalType":"address","name":"predictor","type":"address"},{"internalType":"uint256","name":"amount","type":"uint256"},{"internalType":"uint256","name":"timestamp","type":"uint256"},{"internalType":"uint256","name":"lockedUntil","type":"uint256"},{"internalType":"bool","name":"isUpPrediction","type":"bool"},{"internalType":"uint256","name":"entryPrice","type":"uint256"},{"internalType":"bool","name":"claimed","type":"bool"},{"internalType":"uint256","name":"predictionId","type":"uint256"},{"internalType":"uint256","name":"roundId","type":"uint256"}],"stateMutability":"view","type":"function"},{"inputs":[],"name":"priceOracle","outputs":[{"internalType":"address","name":"","type":"address"}],"stateMutability":"view","type":"function"},{"inputs":[],"name":"renounceOwnership","outputs":[],"stateMutability":"nonpayable","type":"function"},{"inputs":[{"internalType":"uint256","name":"_roundId","type":"uint256"}],"name":"resolveRound","outputs":[],"stateMutability":"nonpayable","type":"function"},{"inputs":[{"internalType":"uint256","name":"","type":"uint256"}],"name":"rounds","outputs":[{"internalType":"uint256","name":"startTime","type":"uint256"},{"internalType":"uint256","name":"endTime","type":"uint256"},{"internalType":"uint256","name":"startPrice","type":"uint256"},{"internalType":"uint256","name":"endPrice","type":"uint256"},{"internalType":"uint256","name":"totalUpStake","type":"uint256"},{"internalType":"uint256","name":"totalDownStake","type":"uint256"},{"internalType":"bool","name":"resolved","type":"bool"}],"stateMutability":"view","type":"function"},{"inputs":[],"name":"totalFeesCollected","outputs":[{"internalType":"uint256","name":"","type":"uint256"}],"stateMutability":"view","type":"function"},{"inputs":[{"internalType":"address","name":"newOwner","type":"address"}],"name":"transferOwnership","outputs":[],"stateMutability":"nonpayable","type":"function"},{"inputs":[{"internalType":"address","name":"_newOracle","type":"address"}],"name":"updateOracle","outputs":[],"stateMutability":"nonpayable","type":"function"},{"inputs":[{"internalType":"uint256","name":"_newPrice","type":"uint256"}],"name":"updatePrice","outputs":[],"stateMutability":"nonpayable","type":"function"},{"inputs":[{"internalType":"address","name":"","type":"address"},{"internalType":"uint256","name":"","type":"uint256"}],"name":"userPredictionIds","outputs":[{"internalType":"uint256","name":"","type":"uint256"}],"stateMutability":"view","type":"function"},{"inputs":[{"internalType":"address","name":"","type":"address"}],"name":"userTotalStaked","outputs":[{"internalType":"uint256","name":"","type":"uint256"}],"stateMutability":"view","type":"function"},{"inputs":[{"internalType":"address","name":"","type":"address"}],"name":"userWinStreak","outputs":[{"internalType":"uint256","name":"","type":"uint256"}],"stateMutability":"view","type":"function"},{"inputs":[{"internalType":"address","name":"","type":"address"}],"name":"userWinnings","outputs":[{"internalType":"uint256","name":"","type":"uint256"}],"stateMutability":"view","type":"function"},{"inputs":[],"name":"withdrawFees","outputs":[],"stateMutability":"nonpayable","type":"function"}],"evm":{"bytecode":{"linkReferences":{},"object":"60a06040523480156200001157600080fd5b5060405162001fa638038062001fa6833981016040819052620000349162000208565b33806200005c57604051631e4fbdf760e01b8152600060048201526024015b60405180910390fd5b62000067816200014c565b50600180556001600160a01b038216620000c45760405162461bcd60e51b815260206004820152601560248201527f496e76616c696420746f6b656e20616464726573730000000000000000000000604482015260640162000053565b60008111620001165760405162461bcd60e51b815260206004820152601560248201527f496e76616c696420696e697469616c2070726963650000000000000000000000604482015260640162000053565b6001600160a01b0382166080526003819055600280546001600160a01b03191633179055620001446200019c565b505062000292565b600080546001600160a01b038381166001600160a01b0319831681178455604051919092169283917f8be0079c531659141344cd1fd0a4f28419497f9722a3daafe3b4186f6b6457e09190a35050565b60048054906000620001ae836200025a565b909155505060045460009081526007602052604090204290819055620001d990620151809062000276565b600454600090815260076020526040902060010155600354600454600090815260076020526040902060020155565b600080604083850312156200021c57600080fd5b82516001600160a01b03811681146200023457600080fd5b6020939093015192949293505050565b634e487b7160e01b600052601160045260246000fd5b6000600182016200026f576200026f62000244565b5060010190565b808201808211156200028c576200028c62000244565b92915050565b608051611ce3620002c3600039600081816103f40152818161091d01528181610d3d01526113b40152611ce36000f3fe608060405234801561001057600080fd5b50600436106102045760003560e01c80638c65c81f1161011a578063c86eb7bb116100ad578063d8d9292e1161007c578063d8d9292e146105bc578063e76e32ae146105c5578063eb91d37e146105e5578063f1a640f8146105ed578063f2fde38b146105f557600080fd5b8063c86eb7bb14610574578063c98517c514610594578063cb1c2b5c146105a4578063d73792a9146105b357600080fd5b8063a815a4d4116100e9578063a815a4d4146104f9578063af9d26df14610519578063b0d6f59c1461054e578063c47517961461056157600080fd5b80638c65c81f146104475780638d6cc56d146104cc5780638da5cb5b146104df5780639d1b464a146104f057600080fd5b8063485d38341161019d5780636641ea081161016c5780636641ea081461039657806370737d70146103ef578063715018a614610416578063719de1ef1461041e5780638a19c8bc1461043e57600080fd5b8063485d3834146103965780634e43603a146103a057806360c6d8ae146103d3578063650b8725146103dc57600080fd5b80632630c12f116101d95780632630c12f146103065780632cb36b5114610331578063401040a61461037b578063476343ee1461038e57600080fd5b80620b46f8146102095780624fbbb0146102255780630962ef79146102de5780631cb44dfc146102f3575b600080fd5b61021261012c81565b6040519081526020015b60405180910390f35b61028e610233366004611a2f565b60086020819052600091825260409091208054600182015460028301546003840154600485015460058601546006870154600788015497909801546001600160a01b039096169794969395929460ff92831694919392169189565b604080516001600160a01b03909a168a5260208a0198909852968801959095526060870193909352901515608086015260a0850152151560c084015260e08301526101008201526101200161021c565b6102f16102ec366004611a2f565b610608565b005b6102f1610301366004611a64565b610a41565b600254610319906001600160a01b031681565b6040516001600160a01b03909116815260200161021c565b61034461033f366004611a2f565b610ae2565b6040805197885260208801969096529486019390935260608501919091521515608084015260a083015260c082015260e00161021c565b6102f1610389366004611a86565b610b55565b6102f1610ce0565b6102126201518081565b6103b36103ae366004611a64565b610e52565b60408051948552602085019390935291830152606082015260800161021c565b61021260055481565b6102f16103ea366004611a2f565b610f63565b6103197f000000000000000000000000000000000000000000000000000000000000000081565b6102f1611085565b61021261042c366004611a64565b600a6020526000908152604090205481565b61021260045481565b610495610455366004611a2f565b6007602052600090815260409020805460018201546002830154600384015460048501546005860154600690960154949593949293919290919060ff1687565b604080519788526020880196909652948601939093526060850191909152608084015260a0830152151560c082015260e00161021c565b6102f16104da366004611a2f565b611099565b6000546001600160a01b0316610319565b61021260035481565b610212610507366004611a64565b600b6020526000908152604090205481565b61052c610527366004611a2f565b611170565b604080519415158552921515602085015291830152606082015260800161021c565b6102f161055c366004611b09565b611273565b61021261056f366004611b39565b6116a7565b610587610582366004611a64565b6116d8565b60405161021c9190611b63565b610212683635c9adc5dea0000081565b610212670de0b6b3a764000081565b61021261271081565b61021260065481565b6102126105d3366004611a64565b600c6020526000908152604090205481565b600354610212565b610212600881565b6102f1610603366004611a64565b61189c565b6106106118d7565b600081815260086020526040902080546001600160a01b031633146106725760405162461bcd60e51b81526020600482015260136024820152722737ba103cb7bab910383932b234b1ba34b7b760691b60448201526064015b60405180910390fd5b600681015460ff16156106b95760405162461bcd60e51b815260206004820152600f60248201526e105b1c9958591e4818db185a5b5959608a1b6044820152606401610669565b80600301544210156106fc5760405162461bcd60e51b815260206004820152600c60248201526b14dd1a5b1b081b1bd8dad95960a21b6044820152606401610669565b60088101546000818152600760205260409020600681015460ff166107585760405162461bcd60e51b8152602060048201526012602482015271149bdd5b99081b9bdd081c995cdbdb1d995960721b6044820152606401610669565b600583015460038201541160008180156107765750600485015460ff165b8061078f57508115801561078f5750600485015460ff16155b9050600081156108db576000806107aa878760030154611901565b915091506000811180156107be5750600082115b15610886576000828960010154670de0b6b3a76400006107de9190611bbd565b6107e89190611bda565b90506000670de0b6b3a76400006107ff8385611bbd565b6108099190611bda565b9050600061271061081c61012c84611bbd565b6108269190611bda565b9050806005600082825461083a9190611bfc565b909155505060018b01548190610851908490611bfc565b61085b9190611c0f565b336000908152600c6020526040812080549298509061087983611c22565b919050555050505061088e565b876001015492505b876001015483116108a05760006108af565b60018801546108af9084611c0f565b336000908152600b6020526040812080549091906108ce908490611bfc565b909155506108ec92505050565b336000908152600c60205260408120555b60068601805460ff1916600117905580156109f15760405163a9059cbb60e01b8152336004820152602481018290527f00000000000000000000000000000000000000000000000000000000000000006001600160a01b03169063a9059cbb906044016020604051808303816000875af115801561096e573d6000803e3d6000fd5b505050506040513d601f19601f820116820180604052508101906109929190611c3b565b6109ae5760405162461bcd60e51b815260040161066990611c58565b604080518281528315156020820152889133917fbd495203fc7db8566cbc6106126be5d4cbce9f7aba0102877256794d7f4b4c42910160405180910390a3610a2f565b6040805160008082526020820152889133917fbd495203fc7db8566cbc6106126be5d4cbce9f7aba0102877256794d7f4b4c42910160405180910390a35b505050505050610a3e60018055565b50565b610a4961194a565b6001600160a01b038116610a985760405162461bcd60e51b8152602060048201526016602482015275496e76616c6964206f7261636c65206164647265737360501b6044820152606401610669565b600280546001600160a01b0319166001600160a01b0383169081179091556040517f3df77beb5db05fcdd70a30fc8adf3f83f9501b68579455adbd100b818094039490600090a250565b600081815260076020526040812060058101546004820154839283928392839283928392610b109190611bfc565b600482015460058301546006840154600285015460009160ff169081610b37576000610b3d565b86600301545b959f949e50929c50909a509850965090945092505050565b6002546001600160a01b0316331480610b7857506000546001600160a01b031633145b610bb55760405162461bcd60e51b815260206004820152600e60248201526d139bdd08185d5d1a1bdc9a5e995960921b6044820152606401610669565b80610bf65760405162461bcd60e51b8152602060048201526011602482015270456d70747920707269636520617272617960781b6044820152606401610669565b60005b81811015610cdb576000838383818110610c1557610c15611c81565b9050602002013511610c595760405162461bcd60e51b815260206004820152600d60248201526c496e76616c696420707269636560981b6044820152606401610669565b828282818110610c6b57610c6b611c81565b602002919091013560035550337fd8418c2edea4801b73e29837a4f03ac739cddfb84a3e033356997ab034369a61848484818110610cab57610cab611c81565b90506020020135604051610cc191815260200190565b60405180910390a280610cd381611c22565b915050610bf9565b505050565b610ce861194a565b60055480610d2e5760405162461bcd60e51b81526020600482015260136024820152724e6f206665657320746f20776974686472617760681b6044820152606401610669565b60006005556001600160a01b037f00000000000000000000000000000000000000000000000000000000000000001663a9059cbb610d746000546001600160a01b031690565b6040516001600160e01b031960e084901b1681526001600160a01b039091166004820152602481018490526044016020604051808303816000875af1158015610dc1573d6000803e3d6000fd5b505050506040513d601f19601f82011682018060405250810190610de59190611c3b565b610e015760405162461bcd60e51b815260040161066990611c58565b6000546001600160a01b03166001600160a01b03167fc0819c13be868895eb93e40eaceb96de976442fa1d404e5c55f14bb65a8c489a82604051610e4791815260200190565b60405180910390a250565b6001600160a01b0381166000908152600960209081526040808320805482518185028101850190935280835284938493849384938493830182828015610eb757602002820191906000526020600020905b815481526020019060010190808311610ea3575b5050505050905060005b8151811015610f255760086000838381518110610ee057610ee0611c81565b60209081029190910181015182528101919091526040016000206006015460ff16610f135782610f0f81611c22565b9350505b80610f1d81611c22565b915050610ec1565b50506001600160a01b0386166000908152600a6020908152604080832054600b835281842054600c9093529220549196509450925090509193509193565b60008181526007602052604090206001810154421015610fb75760405162461bcd60e51b815260206004820152600f60248201526e149bdd5b99081b9bdd08195b991959608a1b6044820152606401610669565b600681015460ff1615610fff5760405162461bcd60e51b815260206004820152601060248201526f105b1c9958591e481c995cdbdb1d995960821b6044820152606401610669565b600061100a60035490565b6003830181905560068301805460ff191660011790556002830154604080518281526020810184905291831190820181905291925084907fba8fba09fcbe6f2f5ba718766c6db976c30b8c67dc6f6020e410aabaae2176b69060600160405180910390a2600454840361107f5761107f611977565b50505050565b61108d61194a565b61109760006119df565b565b6002546001600160a01b03163314806110bc57506000546001600160a01b031633145b6110f95760405162461bcd60e51b815260206004820152600e60248201526d139bdd08185d5d1a1bdc9a5e995960921b6044820152606401610669565b600081116111395760405162461bcd60e51b815260206004820152600d60248201526c496e76616c696420707269636560981b6044820152606401610669565b600381905560405181815233907fd8418c2edea4801b73e29837a4f03ac739cddfb84a3e033356997ab034369a6190602001610e47565b600081815260086020818152604080842081516101208101835281546001600160a01b0316815260018201548185015260028201548184015260038201546060820152600482015460ff90811615156080830152600583015460a08301526006808401548216151560c084015260078085015460e0850152939096015461010083018190528752919093529084209283015484938493849390928491166112195760035461121f565b81600301545b60a084015190915081116000818015611239575084608001515b8061124f57508115801561124f57508460800151155b60069094015460a0909501519398505060ff90931695509093509150509193509193565b61127b6118d7565b670de0b6b3a76400008210156112c95760405162461bcd60e51b815260206004820152601360248201527242656c6f77206d696e696d756d207374616b6560681b6044820152606401610669565b683635c9adc5dea000008211156113185760405162461bcd60e51b815260206004820152601360248201527241626f7665206d6178696d756d207374616b6560681b6044820152606401610669565b60045460009081526007602052604090206001015461133a90610e1090611c0f565b42106113925760405162461bcd60e51b815260206004820152602160248201527f50726564696374696f6e7320636c6f73656420666f72207468697320726f756e6044820152601960fa1b6064820152608401610669565b6040516323b872dd60e01b8152336004820152306024820152604481018390527f00000000000000000000000000000000000000000000000000000000000000006001600160a01b0316906323b872dd906064016020604051808303816000875af1158015611405573d6000803e3d6000fd5b505050506040513d601f19601f820116820180604052508101906114299190611c3b565b6114455760405162461bcd60e51b815260040161066990611c58565b600061145060035490565b60068054919250600091908261146583611c22565b919050559050604051806101200160405280336001600160a01b0316815260200185815260200142815260200162015180426114a19190611bfc565b81528415801560208084019190915260408084018790526000606080860182905260808087018990526004805460a09889015289845260088087528585208a5181546001600160a01b039091166001600160a01b03199091161781558a88015160018201558a8701516002820155938a0151600385015591890151838201805491151560ff1992831617905597890151600584015560c0890151600684018054911515919099161790975560e0880151600780840191909155610100909801519181019190915594548152948252808520868652909301905291208390556115b6578360076000600454815260200190815260200160002060040160008282546115ab9190611bfc565b909155506115e09050565b600454600090815260076020526040812060050180548692906115da908490611bfc565b90915550505b60045460009081526007602081815260408084203380865293018252808420805460018181018355918652838620018690558385526009835281852080549182018155855282852001859055918352600a905281208054869290611645908490611bfc565b90915550506004546040805186815285151560208201529081018390526060810184905233907fc9eae9de253b4e39a0e1a1f8da1230043fa8710c8db024868ac469602d37738a9060800160405180910390a350506116a360018055565b5050565b600960205281600052604060002081815481106116c357600080fd5b90600052602060002001600091509150505481565b6001600160a01b0381166000908152600960209081526040808320805482518185028101850190935280835260609493849392919083018282801561173c57602002820191906000526020600020905b815481526020019060010190808311611728575b5050505050905060005b81518110156117aa576008600083838151811061176557611765611c81565b60209081029190910181015182528101919091526040016000206006015460ff16611798578261179481611c22565b9350505b806117a281611c22565b915050611746565b5060008267ffffffffffffffff8111156117c6576117c6611c97565b6040519080825280602002602001820160405280156117ef578160200160208202803683370190505b5090506000805b8351811015611891576008600085838151811061181557611815611c81565b60209081029190910181015182528101919091526040016000206006015460ff1661187f5783818151811061184c5761184c611c81565b602002602001015183838061186090611c22565b94508151811061187257611872611c81565b6020026020010181815250505b8061188981611c22565b9150506117f6565b509095945050505050565b6118a461194a565b6001600160a01b0381166118ce57604051631e4fbdf760e01b815260006004820152602401610669565b610a3e816119df565b6002600154036118fa57604051633ee5aeb560e01b815260040160405180910390fd5b6002600155565b6000828152600760205260408120600281015482919084118015611932578160040154935081600501549250611941565b81600501549350816004015492505b50509250929050565b6000546001600160a01b031633146110975760405163118cdaa760e01b8152336004820152602401610669565b6004805490600061198783611c22565b9091555050600454600090815260076020526040902042908190556119b0906201518090611bfc565b600454600090815260076020526040902060010155600354600454600090815260076020526040902060020155565b600080546001600160a01b038381166001600160a01b0319831681178455604051919092169283917f8be0079c531659141344cd1fd0a4f28419497f9722a3daafe3b4186f6b6457e09190a35050565b600060208284031215611a4157600080fd5b5035919050565b80356001600160a01b0381168114611a5f57600080fd5b919050565b600060208284031215611a7657600080fd5b611a7f82611a48565b9392505050565b60008060208385031215611a9957600080fd5b823567ffffffffffffffff80821115611ab157600080fd5b818501915085601f830112611ac557600080fd5b813581811115611ad457600080fd5b8660208260051b8501011115611ae957600080fd5b60209290920196919550909350505050565b8015158114610a3e57600080fd5b60008060408385031215611b1c57600080fd5b823591506020830135611b2e81611afb565b809150509250929050565b60008060408385031215611b4c57600080fd5b611b5583611a48565b946020939093013593505050565b6020808252825182820181905260009190848201906040850190845b81811015611b9b57835183529284019291840191600101611b7f565b50909695505050505050565b634e487b7160e01b600052601160045260246000fd5b8082028115828204841417611bd457611bd4611ba7565b92915050565b600082611bf757634e487b7160e01b600052601260045260246000fd5b500490565b80820180821115611bd457611bd4611ba7565b81810381811115611bd457611bd4611ba7565b600060018201611c3457611c34611ba7565b5060010190565b600060208284031215611c4d57600080fd5b8151611a7f81611afb565b6020808252600f908201526e151c985b9cd9995c8819985a5b1959608a1b604082015260600190565b634e487b7160e01b600052603260045260246000fd5b634e487b7160e01b600052604160045260246000fdfea264697066735822122056e026bd9e01afe498b4a4fc2ba87d84244a9ae657be174e726ddaa3c69bae4164736f6c63430008140033","opcodes":"PUSH1 0xA0 PUSH1 0x40 MSTORE CALLVALUE DUP1 ISZERO PUSH3 0x11 JUMPI PUSH1 0x0 DUP1 REVERT JUMPDEST POP PUSH1 0x40 MLOAD PUSH3 0x1FA6 CODESIZE SUB DUP1 PUSH3 0x1FA6 DUP4 CODECOPY DUP2 ADD PUSH1 0x40 DUP2 SWAP1 MSTORE PUSH3 0x34 SWAP2 PUSH3 0x208 JUMP JUMPDEST CALLER DUP1 PUSH3 0x5C JUMPI PUSH1 0x40 MLOAD PUSH4 0x1E4FBDF7 PUSH1 0xE0 SHL DUP2 MSTORE PUSH1 0x0 PUSH1 0x4 DUP3 ADD MSTORE PUSH1 0x24 ADD JUMPDEST PUSH1 0x40 MLOAD DUP1 SWAP2 SUB SWAP1 REVERT JUMPDEST PUSH3 0x67 DUP2 PUSH3 0x14C JUMP JUMPDEST POP PUSH1 0x1 DUP1 SSTORE PUSH1 0x1 PUSH1 0x1 PUSH1 0xA0 SHL SUB DUP3 AND PUSH3 0xC4 JUMPI PUSH1 0x40 MLOAD PUSH3 0x461BCD PUSH1 0xE5 SHL DUP2 MSTORE PUSH1 0x20 PUSH1 0x4 DUP3 ADD MSTORE PUSH1 0x15 PUSH1 0x24 DUP3 ADD MSTORE PUSH32 0x496E76616C696420746F6B656E20616464726573730000000000000000000000 PUSH1 0x44 DUP3 ADD MSTORE PUSH1 0x64 ADD PUSH3 0x53 JUMP JUMPDEST PUSH1 0x0 DUP2 GT PUSH3 0x116 JUMPI PUSH1 0x40 MLOAD PUSH3 0x461BCD PUSH1 0xE5 SHL DUP2 MSTORE PUSH1 0x20 PUSH1 0x4 DUP3 ADD MSTORE PUSH1 0x15 PUSH1 0x24 DUP3 ADD MSTORE PUSH32 0x496E76616C696420696E697469616C2070726963650000000000000000000000 PUSH1 0x44 DUP3 ADD MSTORE PUSH1 0x64 ADD PUSH3 0x53 JUMP JUMPDEST PUSH1 0x1 PUSH1 0x1 PUSH1 0xA0 SHL SUB DUP3 AND PUSH1 0x80 MSTORE PUSH1 0x3 DUP2 SWAP1 SSTORE PUSH1 0x2 DUP1 SLOAD PUSH1 0x1 PUSH1 0x1 PUSH1 0xA0 SHL SUB NOT AND CALLER OR SWAP1 SSTORE PUSH3 0x144 PUSH3 0x19C JUMP JUMPDEST POP POP PUSH3 0x292 JUMP JUMPDEST PUSH1 0x0 DUP1 SLOAD PUSH1 0x1 PUSH1 0x1 PUSH1 0xA0 SHL SUB DUP4 DUP2 AND PUSH1 0x1 PUSH1 0x1 PUSH1 0xA0 SHL SUB NOT DUP4 AND DUP2 OR DUP5 SSTORE PUSH1 0x40 MLOAD SWAP2 SWAP1 SWAP3 AND SWAP3 DUP4 SWAP2 PUSH32 0x8BE0079C531659141344CD1FD0A4F28419497F9722A3DAAFE3B4186F6B6457E0 SWAP2 SWAP1 LOG3 POP POP JUMP JUMPDEST PUSH1 0x4 DUP1 SLOAD SWAP1 PUSH1 0x0 PUSH3 0x1AE DUP4 PUSH3 0x25A JUMP JUMPDEST SWAP1 SWAP2 SSTORE POP POP PUSH1 0x4 SLOAD PUSH1 0x0 SWAP1 DUP2 MSTORE PUSH1 0x7 PUSH1 0x20 MSTORE PUSH1 0x40 SWAP1 KECCAK256 TIMESTAMP SWAP1 DUP2 SWAP1 SSTORE PUSH3 0x1D9 SWAP1 PUSH3 0x15180 SWAP1 PUSH3 0x276 JUMP JUMPDEST PUSH1 0x4 SLOAD PUSH1 0x0 SWAP1 DUP2 MSTORE PUSH1 0x7 PUSH1 0x20 MSTORE PUSH1 0x40 SWAP1 KECCAK256 PUSH1 0x1 ADD SSTORE PUSH1 0x3 SLOAD PUSH1 0x4 SLOAD PUSH1 0x0 SWAP1 DUP2 MSTORE PUSH1 0x7 PUSH1 0x20 MSTORE PUSH1 0x40 SWAP1 KECCAK256 PUSH1 0x2 ADD SSTORE JUMP JUMPDEST PUSH1 0x0 DUP1 PUSH1 0x40 DUP4 DUP6 SUB SLT ISZERO PUSH3 0x21C JUMPI PUSH1 0x0 DUP1 REVERT JUMPDEST DUP3 MLOAD PUSH1 0x1 PUSH1 0x1 PUSH1 0xA0 SHL SUB DUP2 AND DUP2 EQ PUSH3 0x234 JUMPI PUSH1 0x0 DUP1 REVERT JUMPDEST PUSH1 0x20 SWAP4 SWAP1 SWAP4 ADD MLOAD SWAP3 SWAP5 SWAP3 SWAP4 POP POP POP JUMP JUMPDEST PUSH4 0x4E487B71 PUSH1 0xE0 SHL PUSH1 0x0 MSTORE PUSH1 0x11 PUSH1 0x4 MSTORE PUSH1 0x24 PUSH1 0x0 REVERT JUMPDEST PUSH1 0x0 PUSH1 0x1 DUP3 ADD PUSH3 0x26F JUMPI PUSH3 0x26F PUSH3 0x244 JUMP JUMPDEST POP PUSH1 0x1 ADD SWAP1 JUMP JUMPDEST DUP1 DUP3 ADD DUP1 DUP3 GT ISZERO PUSH3 0x28C JUMPI PUSH3 0x28C PUSH3 0x244 JUMP JUMPDEST SWAP3 SWAP2 POP POP JUMP JUMPDEST PUSH1 0x80 MLOAD PUSH2 0x1CE3 PUSH3 0x2C3 PUSH1 0x0 CODECOPY PUSH1 0x0 DUP2 DUP2 PUSH2 0x3F4 ADD MSTORE DUP2 DUP2 PUSH2 0x91D ADD MSTORE DUP2 DUP2 PUSH2 0xD3D ADD MSTORE PUSH2 0x13B4 ADD MSTORE PUSH2 0x1CE3 PUSH1 0x0 RETURN INVALID PUSH1 0x80 PUSH1 0x40 MSTORE CALLVALUE DUP1 ISZERO PUSH2 0x10 JUMPI PUSH1 0x0 DUP1 REVERT JUMPDEST POP PUSH1 0x4 CALLDATASIZE LT PUSH2 0x204 JUMPI PUSH1 0x0 CALLDATALOAD PUSH1 0xE0 SHR DUP1 PUSH4 0x8C65C81F GT PUSH2 0x11A JUMPI DUP1 PUSH4 0xC86EB7BB GT PUSH2 0xAD JUMPI DUP1 PUSH4 0xD8D9292E GT PUSH2 0x7C JUMPI DUP1 PUSH4 0xD8D9292E EQ PUSH2 0x5BC JUMPI DUP1 PUSH4 0xE76E32AE EQ PUSH2 0x5C5 JUMPI DUP1 PUSH4 0xEB91D37E EQ PUSH2 0x5E5 JUMPI DUP1 PUSH4 0xF1A640F8 EQ PUSH2 0x5ED JUMPI DUP1 PUSH4 0xF2FDE38B EQ PUSH2 0x5F5 JUMPI PUSH1 0x0 DUP1 REVERT JUMPDEST DUP1 PUSH4 0xC86EB7BB EQ PUSH2 0x574 JUMPI DUP1 PUSH4 0xC98517C5 EQ PUSH2 0x594 JUMPI DUP1 PUSH4 0xCB1C2B5C EQ PUSH2 0x5A4 JUMPI DUP1 PUSH4 0xD73792A9 EQ PUSH2 0x5B3 JUMPI PUSH1 0x0 DUP1 REVERT JUMPDEST DUP1 PUSH4 0xA815A4D4 GT PUSH2 0xE9 JUMPI DUP1 PUSH4 0xA815A4D4 EQ PUSH2 0x4F9 JUMPI DUP1 PUSH4 0xAF9D26DF EQ PUSH2 0x519 JUMPI DUP1 PUSH4 0xB0D6F59C EQ PUSH2 0x54E JUMPI DUP1 PUSH4 0xC4751796 EQ PUSH2 0x561 JUMPI PUSH1 0x0 DUP1 REVERT JUMPDEST DUP1 PUSH4 0x8C65C81F EQ PUSH2 0x447 JUMPI DUP1 PUSH4 0x8D6CC56D EQ PUSH2 0x4CC JUMPI DUP1 PUSH4 0x8DA5CB5B EQ PUSH2 0x4DF JUMPI DUP1 PUSH4 0x9D1B464A EQ PUSH2 0x4F0 JUMPI PUSH1 0x0 DUP1 REVERT JUMPDEST DUP1 PUSH4 0x485D3834 GT PUSH2 0x19D JUMPI DUP1 PUSH4 0x6641EA08 GT PUSH2 0x16C JUMPI DUP1 PUSH4 0x6641EA08 EQ PUSH2 0x396 JUMPI DUP1 PUSH4 0x70737D70 EQ PUSH2 0x3EF JUMPI DUP1 PUSH4 0x715018A6 EQ PUSH2 0x416 JUMPI DUP1 PUSH4 0x719DE1EF EQ PUSH2 0x41E JUMPI DUP1 PUSH4 0x8A19C8BC EQ PUSH2 0x43E JUMPI PUSH1 0x0 DUP1 REVERT JUMPDEST DUP1 PUSH4 0x485D3834 EQ PUSH2 0x396 JUMPI DUP1 PUSH4 0x4E43603A EQ PUSH2 0x3A0 JUMPI DUP1 PUSH4 0x60C6D8AE EQ PUSH2 0x3D3 JUMPI DUP1 PUSH4 0x650B8725 EQ PUSH2 0x3DC JUMPI PUSH1 0x0 DUP1 REVERT JUMPDEST DUP1 PUSH4 0x2630C12F GT PUSH2 0x1D9 JUMPI DUP1 PUSH4 0x2630C12F EQ PUSH2 0x306 JUMPI DUP1 PUSH4 0x2CB36B51 EQ PUSH2 0x331 JUMPI DUP1 PUSH4 0x401040A6 EQ PUSH2 0x37B JUMPI DUP1 PUSH4 0x476343EE EQ PUSH2 0x38E JUMPI PUSH1 0x0 DUP1 REVERT JUMPDEST DUP1 PUSH3 0xB46F8 EQ PUSH2 0x209 JUMPI DUP1 PUSH3 0x4FBBB0 EQ PUSH2 0x225 JUMPI DUP1 PUSH4 0x962EF79 EQ PUSH2 0x2DE JUMPI DUP1 PUSH4 0x1CB44DFC EQ PUSH2 0x2F3 JUMPI JUMPDEST PUSH1 0x0 DUP1 REVERT JUMPDEST PUSH2 0x212 PUSH2 0x12C DUP2 JUMP JUMPDEST PUSH1 0x40 MLOAD SWAP1 DUP2 MSTORE PUSH1 0x20 ADD JUMPDEST PUSH1 0x40 MLOAD DUP1 SWAP2 SUB SWAP1 RETURN JUMPDEST PUSH2 0x28E PUSH2 0x233 CALLDATASIZE PUSH1 0x4 PUSH2 0x1A2F JUMP JUMPDEST PUSH1 0x8 PUSH1 0x20 DUP2 SWAP1 MSTORE PUSH1 0x0 SWAP2 DUP3 MSTORE PUSH1 0x40 SWAP1 SWAP2 KECCAK256 DUP1 SLOAD PUSH1 0x1 DUP3 ADD SLOAD PUSH1 0x2 DUP4 ADD SLOAD PUSH1 0x3 DUP5 ADD SLOAD PUSH1 0x4 DUP6 ADD SLOAD PUSH1 0x5 DUP7 ADD SLOAD PUSH1 0x6 DUP8 ADD SLOAD PUSH1 0x7 DUP9 ADD SLOAD SWAP8 SWAP1 SWAP9 ADD SLOAD PUSH1 0x1 PUSH1 0x1 PUSH1 0xA0 SHL SUB SWAP1 SWAP7 AND SWAP8 SWAP5 SWAP7 SWAP4 SWAP6 SWAP3 SWAP5 PUSH1 0xFF SWAP3 DUP4 AND SWAP5 SWAP2 SWAP4 SWAP3 AND SWAP2 DUP10 JUMP JUMPDEST PUSH1 0x40 DUP1 MLOAD PUSH1 0x1 PUSH1 0x1 PUSH1 0xA0 SHL SUB SWAP1 SWAP11 AND DUP11 MSTORE PUSH1 0x20 DUP11 ADD SWAP9 SWAP1 SWAP9 MSTORE SWAP7 DUP9 ADD SWAP6 SWAP1 SWAP6 MSTORE PUSH1 0x60 DUP8 ADD SWAP4 SWAP1 SWAP4 MSTORE SWAP1 ISZERO ISZERO PUSH1 0x80 DUP7 ADD MSTORE PUSH1 0xA0 DUP6 ADD MSTORE ISZERO ISZERO PUSH1 0xC0 DUP5 ADD MSTORE PUSH1 0xE0 DUP4 ADD MSTORE PUSH2 0x100 DUP3 ADD MSTORE PUSH2 0x120 ADD PUSH2 0x21C JUMP JUMPDEST PUSH2 0x2F1 PUSH2 0x2EC CALLDATASIZE PUSH1 0x4 PUSH2 0x1A2F JUMP JUMPDEST PUSH2 0x608 JUMP JUMPDEST STOP JUMPDEST PUSH2 0x2F1 PUSH2 0x301 CALLDATASIZE PUSH1 0x4 PUSH2 0x1A64 JUMP JUMPDEST PUSH2 0xA41 JUMP JUMPDEST PUSH1 0x2 SLOAD PUSH2 0x319 SWAP1 PUSH1 0x1 PUSH1 0x1 PUSH1 0xA0 SHL SUB AND DUP2 JUMP JUMPDEST PUSH1 0x40 MLOAD PUSH1 0x1 PUSH1 0x1 PUSH1 0xA0 SHL SUB SWAP1 SWAP2 AND DUP2 MSTORE PUSH1 0x20 ADD PUSH2 0x21C JUMP JUMPDEST PUSH2 0x344 PUSH2 0x33F CALLDATASIZE PUSH1 0x4 PUSH2 0x1A2F JUMP JUMPDEST PUSH2 0xAE2 JUMP JUMPDEST PUSH1 0x40 DUP1 MLOAD SWAP8 DUP9 MSTORE PUSH1 0x20 DUP9 ADD SWAP7 SWAP1 SWAP7 MSTORE SWAP5 DUP7 ADD SWAP4 SWAP1 SWAP4 MSTORE PUSH1 0x60 DUP6 ADD SWAP2 SWAP1 SWAP2 MSTORE ISZERO ISZERO PUSH1 0x80 DUP5 ADD MSTORE PUSH1 0xA0 DUP4 ADD MSTORE PUSH1 0xC0 DUP3 ADD MSTORE PUSH1 0xE0 ADD PUSH2 0x21C JUMP JUMPDEST PUSH2 0x2F1 PUSH2 0x389 CALLDATASIZE PUSH1 0x4 PUSH2 0x1A86 JUMP JUMPDEST PUSH2 0xB55 JUMP JUMPDEST PUSH2 0x2F1 PUSH2 0xCE0 JUMP JUMPDEST PUSH2 0x212 PUSH3 0x15180 DUP2 JUMP JUMPDEST PUSH2 0x3B3 PUSH2 0x3AE CALLDATASIZE PUSH1 0x4 PUSH2 0x1A64 JUMP JUMPDEST PUSH2 0xE52 JUMP JUMPDEST PUSH1 0x40 DUP1 MLOAD SWAP5 DUP6 MSTORE PUSH1 0x20 DUP6 ADD SWAP4 SWAP1 SWAP4 MSTORE SWAP2 DUP4 ADD MSTORE PUSH1 0x60 DUP3 ADD MSTORE PUSH1 0x80 ADD PUSH2 0x21C JUMP JUMPDEST PUSH2 0x212 PUSH1 0x5 SLOAD DUP2 JUMP JUMPDEST PUSH2 0x2F1 PUSH2 0x3EA CALLDATASIZE PUSH1 0x4 PUSH2 0x1A2F JUMP JUMPDEST PUSH2 0xF63 JUMP JUMPDEST PUSH2 0x319 PUSH32 0x0 DUP2 JUMP JUMPDEST PUSH2 0x2F1 PUSH2 0x1085 JUMP JUMPDEST PUSH2 0x212 PUSH2 0x42C CALLDATASIZE PUSH1 0x4 PUSH2 0x1A64 JUMP JUMPDEST PUSH1 0xA PUSH1 0x20 MSTORE PUSH1 0x0 SWAP1 DUP2 MSTORE PUSH1 0x40 SWAP1 KECCAK256 SLOAD DUP2 JUMP JUMPDEST PUSH2 0x212 PUSH1 0x4 SLOAD DUP2 JUMP JUMPDEST PUSH2 0x495 PUSH2 0x455 CALLDATASIZE PUSH1 0x4 PUSH2 0x1A2F JUMP JUMPDEST PUSH1 0x7 PUSH1 0x20 MSTORE PUSH1 0x0 SWAP1 DUP2 MSTORE PUSH1 0x40 SWAP1 KECCAK256 DUP1 SLOAD PUSH1 0x1 DUP3 ADD SLOAD PUSH1 0x2 DUP4 ADD SLOAD PUSH1 0x3 DUP5 ADD SLOAD PUSH1 0x4 DUP6 ADD SLOAD PUSH1 0x5 DUP7 ADD SLOAD PUSH1 0x6 SWAP1 SWAP7 ADD SLOAD SWAP5 SWAP6 SWAP4 SWAP5 SWAP3 SWAP4 SWAP2 SWAP3 SWAP1 SWAP2 SWAP1 PUSH1 0xFF AND DUP8 JUMP JUMPDEST PUSH1 0x40 DUP1 MLOAD SWAP8 DUP9 MSTORE PUSH1 0x20 DUP9 ADD SWAP7 SWAP1 SWAP7 MSTORE SWAP5 DUP7 ADD SWAP4 SWAP1 SWAP4 MSTORE PUSH1 0x60 DUP6 ADD SWAP2 SWAP1 SWAP2 MSTORE PUSH1 0x80 DUP5 ADD MSTORE PUSH1 0xA0 DUP4 ADD MSTORE ISZERO ISZERO PUSH1 0xC0 DUP3 ADD MSTORE PUSH1 0xE0 ADD PUSH2 0x21C JUMP JUMPDEST PUSH2 0x2F1 PUSH2 0x4DA CALLDATASIZE PUSH1 0x4 PUSH2 0x1A2F JUMP JUMPDEST PUSH2 0x1099 JUMP JUMPDEST PUSH1 0x0 SLOAD PUSH1 0x1 PUSH1 0x1 PUSH1 0xA0 SHL SUB AND PUSH2 0x319 JUMP JUMPDEST PUSH2 0x212 PUSH1 0x3 SLOAD DUP2 JUMP JUMPDEST PUSH2 0x212 PUSH2 0x507 CALLDATASIZE PUSH1 0x4 PUSH2 0x1A64 JUMP JUMPDEST PUSH1 0xB PUSH1 0x20 MSTORE PUSH1 0x0 SWAP1 DUP2 MSTORE PUSH1 0x40 SWAP1 KECCAK256 SLOAD DUP2 JUMP JUMPDEST PUSH2 0x52C PUSH2 0x527 CALLDATASIZE PUSH1 0x4 PUSH2 0x1A2F JUMP JUMPDEST PUSH2 0x1170 JUMP JUMPDEST PUSH1 0x40 DUP1 MLOAD SWAP5 ISZERO ISZERO DUP6 MSTORE SWAP3 ISZERO ISZERO PUSH1 0x20 DUP6 ADD MSTORE SWAP2 DUP4 ADD MSTORE PUSH1 0x60 DUP3 ADD MSTORE PUSH1 0x80 ADD PUSH2 0x21C JUMP JUMPDEST PUSH2 0x2F1 PUSH2 0x55C CALLDATASIZE PUSH1 0x4 PUSH2 0x1B09 JUMP JUMPDEST PUSH2 0x1273 JUMP JUMPDEST PUSH2 0x212 PUSH2 0x56F CALLDATASIZE PUSH1 0x4 PUSH2 0x1B39 JUMP JUMPDEST PUSH2 0x16A7 JUMP JUMPDEST PUSH2 0x587 PUSH2 0x582 CALLDATASIZE PUSH1 0x4 PUSH2 0x1A64 JUMP JUMPDEST PUSH2 0x16D8 JUMP JUMPDEST PUSH1 0x40 MLOAD PUSH2 0x21C SWAP2 SWAP1 PUSH2 0x1B63 JUMP JUMPDEST PUSH2 0x212 PUSH9 0x3635C9ADC5DEA00000 DUP2 JUMP JUMPDEST PUSH2 0x212 PUSH8 0xDE0B6B3A7640000 DUP2 JUMP JUMPDEST PUSH2 0x212 PUSH2 0x2710 DUP2 JUMP JUMPDEST PUSH2 0x212 PUSH1 0x6 SLOAD DUP2 JUMP JUMPDEST PUSH2 0x212 PUSH2 0x5D3 CALLDATASIZE PUSH1 0x4 PUSH2 0x1A64 JUMP JUMPDEST PUSH1 0xC PUSH1 0x20 MSTORE PUSH1 0x0 SWAP1 DUP2 MSTORE PUSH1 0x40 SWAP1 KECCAK256 SLOAD DUP2 JUMP JUMPDEST PUSH1 0x3 SLOAD PUSH2 0x212 JUMP JUMPDEST PUSH2 0x212 PUSH1 0x8 DUP2 JUMP JUMPDEST PUSH2 0x2F1 PUSH2 0x603 CALLDATASIZE PUSH1 0x4 PUSH2 0x1A64 JUMP JUMPDEST PUSH2 0x189C JUMP JUMPDEST PUSH2 0x610 PUSH2 0x18D7 JUMP JUMPDEST PUSH1 0x0 DUP2 DUP2 MSTORE PUSH1 0x8 PUSH1 0x20 MSTORE PUSH1 0x40 SWAP1 KECCAK256 DUP1 SLOAD PUSH1 0x1 PUSH1 0x1 PUSH1 0xA0 SHL SUB AND CALLER EQ PUSH2 0x672 JUMPI PUSH1 0x40 MLOAD PUSH3 0x461BCD PUSH1 0xE5 SHL DUP2 MSTORE PUSH1 0x20 PUSH1 0x4 DUP3 ADD MSTORE PUSH1 0x13 PUSH1 0x24 DUP3 ADD MSTORE PUSH19 0x2737BA103CB7BAB910383932B234B1BA34B7B7 PUSH1 0x69 SHL PUSH1 0x44 DUP3 ADD MSTORE PUSH1 0x64 ADD JUMPDEST PUSH1 0x40 MLOAD DUP1 SWAP2 SUB SWAP1 REVERT JUMPDEST PUSH1 0x6 DUP2 ADD SLOAD PUSH1 0xFF AND ISZERO PUSH2 0x6B9 JUMPI PUSH1 0x40 MLOAD PUSH3 0x461BCD PUSH1 0xE5 SHL DUP2 MSTORE PUSH1 0x20 PUSH1 0x4 DUP3 ADD MSTORE PUSH1 0xF PUSH1 0x24 DUP3 ADD MSTORE PUSH15 0x105B1C9958591E4818DB185A5B5959 PUSH1 0x8A SHL PUSH1 0x44 DUP3 ADD MSTORE PUSH1 0x64 ADD PUSH2 0x669 JUMP JUMPDEST DUP1 PUSH1 0x3 ADD SLOAD TIMESTAMP LT ISZERO PUSH2 0x6FC JUMPI PUSH1 0x40 MLOAD PUSH3 0x461BCD PUSH1 0xE5 SHL DUP2 MSTORE PUSH1 0x20 PUSH1 0x4 DUP3 ADD MSTORE PUSH1 0xC PUSH1 0x24 DUP3 ADD MSTORE PUSH12 0x14DD1A5B1B081B1BD8DAD959 PUSH1 0xA2 SHL PUSH1 0x44 DUP3 ADD MSTORE PUSH1 0x64 ADD PUSH2 0x669 JUMP JUMPDEST PUSH1 0x8 DUP2 ADD SLOAD PUSH1 0x0 DUP2 DUP2 MSTORE PUSH1 0x7 PUSH1 0x20 MSTORE PUSH1 0x40 SWAP1 KECCAK256 PUSH1 0x6 DUP2 ADD SLOAD PUSH1 0xFF AND PUSH2 0x758 JUMPI PUSH1 0x40 MLOAD PUSH3 0x461BCD PUSH1 0xE5 SHL DUP2 MSTORE PUSH1 0x20 PUSH1 0x4 DUP3 ADD MSTORE PUSH1 0x12 PUSH1 0x24 DUP3 ADD MSTORE PUSH18 0x149BDD5B99081B9BDD081C995CDBDB1D9959 PUSH1 0x72 SHL PUSH1 0x44 DUP3 ADD MSTORE PUSH1 0x64 ADD PUSH2 0x669 JUMP JUMPDEST PUSH1 0x5 DUP4 ADD SLOAD PUSH1 0x3 DUP3 ADD SLOAD GT PUSH1 0x0 DUP2 DUP1 ISZERO PUSH2 0x776 JUMPI POP PUSH1 0x4 DUP6 ADD SLOAD PUSH1 0xFF AND JUMPDEST DUP1 PUSH2 0x78F JUMPI POP DUP2 ISZERO DUP1 ISZERO PUSH2 0x78F JUMPI POP PUSH1 0x4 DUP6 ADD SLOAD PUSH1 0xFF AND ISZERO JUMPDEST SWAP1 POP PUSH1 0x0 DUP2 ISZERO PUSH2 0x8DB JUMPI PUSH1 0x0 DUP1 PUSH2 0x7AA DUP8 DUP8 PUSH1 0x3 ADD SLOAD PUSH2 0x1901 JUMP JUMPDEST SWAP2 POP SWAP2 POP PUSH1 0x0 DUP2 GT DUP1 ISZERO PUSH2 0x7BE JUMPI POP PUSH1 0x0 DUP3 GT JUMPDEST ISZERO PUSH2 0x886 JUMPI PUSH1 0x0 DUP3 DUP10 PUSH1 0x1 ADD SLOAD PUSH8 0xDE0B6B3A7640000 PUSH2 0x7DE SWAP2 SWAP1 PUSH2 0x1BBD JUMP JUMPDEST PUSH2 0x7E8 SWAP2 SWAP1 PUSH2 0x1BDA JUMP JUMPDEST SWAP1 POP PUSH1 0x0 PUSH8 0xDE0B6B3A7640000 PUSH2 0x7FF DUP4 DUP6 PUSH2 0x1BBD JUMP JUMPDEST PUSH2 0x809 SWAP2 SWAP1 PUSH2 0x1BDA JUMP JUMPDEST SWAP1 POP PUSH1 0x0 PUSH2 0x2710 PUSH2 0x81C PUSH2 0x12C DUP5 PUSH2 0x1BBD JUMP JUMPDEST PUSH2 0x826 SWAP2 SWAP1 PUSH2 0x1BDA JUMP JUMPDEST SWAP1 POP DUP1 PUSH1 0x5 PUSH1 0x0 DUP3 DUP3 SLOAD PUSH2 0x83A SWAP2 SWAP1 PUSH2 0x1BFC JUMP JUMPDEST SWAP1 SWAP2 SSTORE POP POP PUSH1 0x1 DUP12 ADD SLOAD DUP2 SWAP1 PUSH2 0x851 SWAP1 DUP5 SWAP1 PUSH2 0x1BFC JUMP JUMPDEST PUSH2 0x85B SWAP2 SWAP1 PUSH2 0x1C0F JUMP JUMPDEST CALLER PUSH1 0x0 SWAP1 DUP2 MSTORE PUSH1 0xC PUSH1 0x20 MSTORE PUSH1 0x40 DUP2 KECCAK256 DUP1 SLOAD SWAP3 SWAP9 POP SWAP1 PUSH2 0x879 DUP4 PUSH2 0x1C22 JUMP JUMPDEST SWAP2 SWAP1 POP SSTORE POP POP POP POP PUSH2 0x88E JUMP JUMPDEST DUP8 PUSH1 0x1 ADD SLOAD SWAP3 POP JUMPDEST DUP8 PUSH1 0x1 ADD SLOAD DUP4 GT PUSH2 0x8A0 JUMPI PUSH1 0x0 PUSH2 0x8AF JUMP JUMPDEST PUSH1 0x1 DUP9 ADD SLOAD PUSH2 0x8AF SWAP1 DUP5 PUSH2 0x1C0F JUMP JUMPDEST CALLER PUSH1 0x0 SWAP1 DUP2 MSTORE PUSH1 0xB PUSH1 0x20 MSTORE PUSH1 0x40 DUP2 KECCAK256 DUP1 SLOAD SWAP1 SWAP2 SWAP1 PUSH2 0x8CE SWAP1 DUP5 SWAP1 PUSH2 0x1BFC JUMP JUMPDEST SWAP1 SWAP2 SSTORE POP PUSH2 0x8EC SWAP3 POP POP POP JUMP JUMPDEST CALLER PUSH1 0x0 SWAP1 DUP2 MSTORE PUSH1 0xC PUSH1 0x20 MSTORE PUSH1 0x40 DUP2 KECCAK256 SSTORE JUMPDEST PUSH1 0x6 DUP7 ADD DUP1 SLOAD PUSH1 0xFF NOT AND PUSH1 0x1 OR SWAP1 SSTORE DUP1 ISZERO PUSH2 0x9F1 JUMPI PUSH1 0x40 MLOAD PUSH4 0xA9059CBB PUSH1 0xE0 SHL DUP2 MSTORE CALLER PUSH1 0x4 DUP3 ADD MSTORE PUSH1 0x24 DUP2 ADD DUP3 SWAP1 MSTORE PUSH32 0x0 PUSH1 0x1 PUSH1 0x1 PUSH1 0xA0 SHL SUB AND SWAP1 PUSH4 0xA9059CBB SWAP1 PUSH1 0x44 ADD PUSH1 0x20 PUSH1 0x40 MLOAD DUP1 DUP4 SUB DUP2 PUSH1 0x0 DUP8 GAS CALL ISZERO DUP1 ISZERO PUSH2 0x96E JUMPI RETURNDATASIZE PUSH1 0x0 DUP1 RETURNDATACOPY RETURNDATASIZE PUSH1 0x0 REVERT JUMPDEST POP POP POP POP PUSH1 0x40 MLOAD RETURNDATASIZE PUSH1 0x1F NOT PUSH1 0x1F DUP3 ADD AND DUP3 ADD DUP1 PUSH1 0x40 MSTORE POP DUP2 ADD SWAP1 PUSH2 0x992 SWAP2 SWAP1 PUSH2 0x1C3B JUMP JUMPDEST PUSH2 0x9AE JUMPI PUSH1 0x40 MLOAD PUSH3 0x461BCD PUSH1 0xE5 SHL DUP2 MSTORE PUSH1 0x4 ADD PUSH2 0x669 SWAP1 PUSH2 0x1C58 JUMP JUMPDEST PUSH1 0x40 DUP1 MLOAD DUP3 DUP2 MSTORE DUP4 ISZERO ISZERO PUSH1 0x20 DUP3 ADD MSTORE DUP9 SWAP2 CALLER SWAP2 PUSH32 0xBD495203FC7DB8566CBC6106126BE5D4CBCE9F7ABA0102877256794D7F4B4C42 SWAP2 ADD PUSH1 0x40 MLOAD DUP1 SWAP2 SUB SWAP1 LOG3 PUSH2 0xA2F JUMP JUMPDEST PUSH1 0x40 DUP1 MLOAD PUSH1 0x0 DUP1 DUP3 MSTORE PUSH1 0x20 DUP3 ADD MSTORE DUP9 SWAP2 CALLER SWAP2 PUSH32 0xBD495203FC7DB8566CBC6106126BE5D4CBCE9F7ABA0102877256794D7F4B4C42 SWAP2 ADD PUSH1 0x40 MLOAD DUP1 SWAP2 SUB SWAP1 LOG3 JUMPDEST POP POP POP POP POP POP PUSH2 0xA3E PUSH1 0x1 DUP1 SSTORE JUMP JUMPDEST POP JUMP JUMPDEST PUSH2 0xA49 PUSH2 0x194A JUMP JUMPDEST PUSH1 0x1 PUSH1 0x1 PUSH1 0xA0 SHL SUB DUP2 AND PUSH2 0xA98 JUMPI PUSH1 0x40 MLOAD PUSH3 0x461BCD PUSH1 0xE5 SHL DUP2 MSTORE PUSH1 0x20 PUSH1 0x4 DUP3 ADD MSTORE PUSH1 0x16 PUSH1 0x24 DUP3 ADD MSTORE PUSH22 0x496E76616C6964206F7261636C652061646472657373 PUSH1 0x50 SHL PUSH1 0x44 DUP3 ADD MSTORE PUSH1 0x64 ADD PUSH2 0x669 JUMP JUMPDEST PUSH1 0x2 DUP1 SLOAD PUSH1 0x1 PUSH1 0x1 PUSH1 0xA0 SHL SUB NOT AND PUSH1 0x1 PUSH1 0x1 PUSH1 0xA0 SHL SUB DUP4 AND SWAP1 DUP2 OR SWAP1 SWAP2 SSTORE PUSH1 0x40 MLOAD PUSH32 0x3DF77BEB5DB05FCDD70A30FC8ADF3F83F9501B68579455ADBD100B8180940394 SWAP1 PUSH1 0x0 SWAP1 LOG2 POP JUMP JUMPDEST PUSH1 0x0 DUP2 DUP2 MSTORE PUSH1 0x7 PUSH1 0x20 MSTORE PUSH1 0x40 DUP2 KECCAK256 PUSH1 0x5 DUP2 ADD SLOAD PUSH1 0x4 DUP3 ADD SLOAD DUP4 SWAP3 DUP4 SWAP3 DUP4 SWAP3 DUP4 SWAP3 DUP4 SWAP3 DUP4 SWAP3 PUSH2 0xB10 SWAP2 SWAP1 PUSH2 0x1BFC JUMP JUMPDEST PUSH1 0x4 DUP3 ADD SLOAD PUSH1 0x5 DUP4 ADD SLOAD PUSH1 0x6 DUP5 ADD SLOAD PUSH1 0x2 DUP6 ADD SLOAD PUSH1 0x0 SWAP2 PUSH1 0xFF AND SWAP1 DUP2 PUSH2 0xB37 JUMPI PUSH1 0x0 PUSH2 0xB3D JUMP JUMPDEST DUP7 PUSH1 0x3 ADD SLOAD JUMPDEST SWAP6 SWAP16 SWAP5 SWAP15 POP SWAP3 SWAP13 POP SWAP1 SWAP11 POP SWAP9 POP SWAP7 POP SWAP1 SWAP5 POP SWAP3 POP POP POP JUMP JUMPDEST PUSH1 0x2 SLOAD PUSH1 0x1 PUSH1 0x1 PUSH1 0xA0 SHL SUB AND CALLER EQ DUP1 PUSH2 0xB78 JUMPI POP PUSH1 0x0 SLOAD PUSH1 0x1 PUSH1 0x1 PUSH1 0xA0 SHL SUB AND CALLER EQ JUMPDEST PUSH2 0xBB5 JUMPI PUSH1 0x40 MLOAD PUSH3 0x461BCD PUSH1 0xE5 SHL DUP2 MSTORE PUSH1 0x20 PUSH1 0x4 DUP3 ADD MSTORE PUSH1 0xE PUSH1 0x24 DUP3 ADD MSTORE PUSH14 0x139BDD08185D5D1A1BDC9A5E9959 PUSH1 0x92 SHL PUSH1 0x44 DUP3 ADD MSTORE PUSH1 0x64 ADD PUSH2 0x669 JUMP JUMPDEST DUP1 PUSH2 0xBF6 JUMPI PUSH1 0x40 MLOAD PUSH3 0x461BCD PUSH1 0xE5 SHL DUP2 MSTORE PUSH1 0x20 PUSH1 0x4 DUP3 ADD MSTORE PUSH1 0x11 PUSH1 0x24 DUP3 ADD MSTORE PUSH17 0x456D707479207072696365206172726179 PUSH1 0x78 SHL PUSH1 0x44 DUP3 ADD MSTORE PUSH1 0x64 ADD PUSH2 0x669 JUMP JUMPDEST PUSH1 0x0 JUMPDEST DUP2 DUP2 LT ISZERO PUSH2 0xCDB JUMPI PUSH1 0x0 DUP4 DUP4 DUP4 DUP2 DUP2 LT PUSH2 0xC15 JUMPI PUSH2 0xC15 PUSH2 0x1C81 JUMP JUMPDEST SWAP1 POP PUSH1 0x20 MUL ADD CALLDATALOAD GT PUSH2 0xC59 JUMPI PUSH1 0x40 MLOAD PUSH3 0x461BCD PUSH1 0xE5 SHL DUP2 MSTORE PUSH1 0x20 PUSH1 0x4 DUP3 ADD MSTORE PUSH1 0xD PUSH1 0x24 DUP3 ADD MSTORE PUSH13 0x496E76616C6964207072696365 PUSH1 0x98 SHL PUSH1 0x44 DUP3 ADD MSTORE PUSH1 0x64 ADD PUSH2 0x669 JUMP JUMPDEST DUP3 DUP3 DUP3 DUP2 DUP2 LT PUSH2 0xC6B JUMPI PUSH2 0xC6B PUSH2 0x1C81 JUMP JUMPDEST PUSH1 0x20 MUL SWAP2 SWAP1 SWAP2 ADD CALLDATALOAD PUSH1 0x3 SSTORE POP CALLER PUSH32 0xD8418C2EDEA4801B73E29837A4F03AC739CDDFB84A3E033356997AB034369A61 DUP5 DUP5 DUP5 DUP2 DUP2 LT PUSH2 0xCAB JUMPI PUSH2 0xCAB PUSH2 0x1C81 JUMP JUMPDEST SWAP1 POP PUSH1 0x20 MUL ADD CALLDATALOAD PUSH1 0x40 MLOAD PUSH2 0xCC1 SWAP2 DUP2 MSTORE PUSH1 0x20 ADD SWAP1 JUMP JUMPDEST PUSH1 0x40 MLOAD DUP1 SWAP2 SUB SWAP1 LOG2 DUP1 PUSH2 0xCD3 DUP2 PUSH2 0x1C22 JUMP JUMPDEST SWAP2 POP POP PUSH2 0xBF9 JUMP JUMPDEST POP POP POP JUMP JUMPDEST PUSH2 0xCE8 PUSH2 0x194A JUMP JUMPDEST PUSH1 0x5 SLOAD DUP1 PUSH2 0xD2E JUMPI PUSH1 0x40 MLOAD PUSH3 0x461BCD PUSH1 0xE5 SHL DUP2 MSTORE PUSH1 0x20 PUSH1 0x4 DUP3 ADD MSTORE PUSH1 0x13 PUSH1 0x24 DUP3 ADD MSTORE PUSH19 0x4E6F206665657320746F207769746864726177 PUSH1 0x68 SHL PUSH1 0x44 DUP3 ADD MSTORE PUSH1 0x64 ADD PUSH2 0x669 JUMP JUMPDEST PUSH1 0x0 PUSH1 0x5 SSTORE PUSH1 0x1 PUSH1 0x1 PUSH1 0xA0 SHL SUB PUSH32 0x0 AND PUSH4 0xA9059CBB PUSH2 0xD74 PUSH1 0x0 SLOAD PUSH1 0x1 PUSH1 0x1 PUSH1 0xA0 SHL SUB AND SWAP1 JUMP JUMPDEST PUSH1 0x40 MLOAD PUSH1 0x1 PUSH1 0x1 PUSH1 0xE0 SHL SUB NOT PUSH1 0xE0 DUP5 SWAP1 SHL AND DUP2 MSTORE PUSH1 0x1 PUSH1 0x1 PUSH1 0xA0 SHL SUB SWAP1 SWAP2 AND PUSH1 0x4 DUP3 ADD MSTORE PUSH1 0x24 DUP2 ADD DUP5 SWAP1 MSTORE PUSH1 0x44 ADD PUSH1 0x20 PUSH1 0x40 MLOAD DUP1 DUP4 SUB DUP2 PUSH1 0x0 DUP8 GAS CALL ISZERO DUP1 ISZERO PUSH2 0xDC1 JUMPI RETURNDATASIZE PUSH1 0x0 DUP1 RETURNDATACOPY RETURNDATASIZE PUSH1 0x0 REVERT JUMPDEST POP POP POP POP PUSH1 0x40 MLOAD RETURNDATASIZE PUSH1 0x1F NOT PUSH1 0x1F DUP3 ADD AND DUP3 ADD DUP1 PUSH1 0x40 MSTORE POP DUP2 ADD SWAP1 PUSH2 0xDE5 SWAP2 SWAP1 PUSH2 0x1C3B JUMP JUMPDEST PUSH2 0xE01 JUMPI PUSH1 0x40 MLOAD PUSH3 0x461BCD PUSH1 0xE5 SHL DUP2 MSTORE PUSH1 0x4 ADD PUSH2 0x669 SWAP1 PUSH2 0x1C58 JUMP JUMPDEST PUSH1 0x0 SLOAD PUSH1 0x1 PUSH1 0x1 PUSH1 0xA0 SHL SUB AND PUSH1 0x1 PUSH1 0x1 PUSH1 0xA0 SHL SUB AND PUSH32 0xC0819C13BE868895EB93E40EACEB96DE976442FA1D404E5C55F14BB65A8C489A DUP3 PUSH1 0x40 MLOAD PUSH2 0xE47 SWAP2 DUP2 MSTORE PUSH1 0x20 ADD SWAP1 JUMP JUMPDEST PUSH1 0x40 MLOAD DUP1 SWAP2 SUB SWAP1 LOG2 POP JUMP JUMPDEST PUSH1 0x1 PUSH1 0x1 PUSH1 0xA0 SHL SUB DUP2 AND PUSH1 0x0 SWAP1 DUP2 MSTORE PUSH1 0x9 PUSH1 0x20 SWAP1 DUP2 MSTORE PUSH1 0x40 DUP1 DUP4 KECCAK256 DUP1 SLOAD DUP3 MLOAD DUP2 DUP6 MUL DUP2 ADD DUP6 ADD SWAP1 SWAP4 MSTORE DUP1 DUP4 MSTORE DUP5 SWAP4 DUP5 SWAP4 DUP5 SWAP4 DUP5 SWAP4 DUP5 SWAP4 DUP4 ADD DUP3 DUP3 DUP1 ISZERO PUSH2 0xEB7 JUMPI PUSH1 0x20 MUL DUP3 ADD SWAP2 SWAP1 PUSH1 0x0 MSTORE PUSH1 0x20 PUSH1 0x0 KECCAK256 SWAP1 JUMPDEST DUP2 SLOAD DUP2 MSTORE PUSH1 0x20 ADD SWAP1 PUSH1 0x1 ADD SWAP1 DUP1 DUP4 GT PUSH2 0xEA3 JUMPI JUMPDEST POP POP POP POP POP SWAP1 POP PUSH1 0x0 JUMPDEST DUP2 MLOAD DUP2 LT ISZERO PUSH2 0xF25 JUMPI PUSH1 0x8 PUSH1 0x0 DUP4 DUP4 DUP2 MLOAD DUP2 LT PUSH2 0xEE0 JUMPI PUSH2 0xEE0 PUSH2 0x1C81 JUMP JUMPDEST PUSH1 0x20 SWAP1 DUP2 MUL SWAP2 SWAP1 SWAP2 ADD DUP2 ADD MLOAD DUP3 MSTORE DUP2 ADD SWAP2 SWAP1 SWAP2 MSTORE PUSH1 0x40 ADD PUSH1 0x0 KECCAK256 PUSH1 0x6 ADD SLOAD PUSH1 0xFF AND PUSH2 0xF13 JUMPI DUP3 PUSH2 0xF0F DUP2 PUSH2 0x1C22 JUMP JUMPDEST SWAP4 POP POP JUMPDEST DUP1 PUSH2 0xF1D DUP2 PUSH2 0x1C22 JUMP JUMPDEST SWAP2 POP POP PUSH2 0xEC1 JUMP JUMPDEST POP POP PUSH1 0x1 PUSH1 0x1 PUSH1 0xA0 SHL SUB DUP7 AND PUSH1 0x0 SWAP1 DUP2 MSTORE PUSH1 0xA PUSH1 0x20 SWAP1 DUP2 MSTORE PUSH1 0x40 DUP1 DUP4 KECCAK256 SLOAD PUSH1 0xB DUP4 MSTORE DUP2 DUP5 KECCAK256 SLOAD PUSH1 0xC SWAP1 SWAP4 MSTORE SWAP3 KECCAK256 SLOAD SWAP2 SWAP7 POP SWAP5 POP SWAP3 POP SWAP1 POP SWAP2 SWAP4 POP SWAP2 SWAP4 JUMP JUMPDEST PUSH1 0x0 DUP2 DUP2 MSTORE PUSH1 0x7 PUSH1 0x20 MSTORE PUSH1 0x40 SWAP1 KECCAK256 PUSH1 0x1 DUP2 ADD SLOAD TIMESTAMP LT ISZERO PUSH2 0xFB7 JUMPI PUSH1 0x40 MLOAD PUSH3 0x461BCD PUSH1 0xE5 SHL DUP2 MSTORE PUSH1 0x20 PUSH1 0x4 DUP3 ADD MSTORE PUSH1 0xF PUSH1 0x24 DUP3 ADD MSTORE PUSH15 0x149BDD5B99081B9BDD08195B991959 PUSH1 0x8A SHL PUSH1 0x44 DUP3 ADD MSTORE PUSH1 0x64 ADD PUSH2 0x669 JUMP JUMPDEST PUSH1 0x6 DUP2 ADD SLOAD PUSH1 0xFF AND ISZERO PUSH2 0xFFF JUMPI PUSH1 0x40 MLOAD PUSH3 0x461BCD PUSH1 0xE5 SHL DUP2 MSTORE PUSH1 0x20 PUSH1 0x4 DUP3 ADD MSTORE PUSH1 0x10 PUSH1 0x24 DUP3 ADD MSTORE PUSH16 0x105B1C9958591E481C995CDBDB1D9959 PUSH1 0x82 SHL PUSH1 0x44 DUP3 ADD MSTORE PUSH1 0x64 ADD PUSH2 0x669 JUMP JUMPDEST PUSH1 0x0 PUSH2 0x100A PUSH1 0x3 SLOAD SWAP1 JUMP JUMPDEST PUSH1 0x3 DUP4 ADD DUP2 SWAP1 SSTORE PUSH1 0x6 DUP4 ADD DUP1 SLOAD PUSH1 0xFF NOT AND PUSH1 0x1 OR SWAP1 SSTORE PUSH1 0x2 DUP4 ADD SLOAD PUSH1 0x40 DUP1 MLOAD DUP3 DUP2 MSTORE PUSH1 0x20 DUP2 ADD DUP5 SWAP1 MSTORE SWAP2 DUP4 GT SWAP1 DUP3 ADD DUP2 SWAP1 MSTORE SWAP2 SWAP3 POP DUP5 SWAP1 PUSH32 0xBA8FBA09FCBE6F2F5BA718766C6DB976C30B8C67DC6F6020E410AABAAE2176B6 SWAP1 PUSH1 0x60 ADD PUSH1 0x40 MLOAD DUP1 SWAP2 SUB SWAP1 LOG2 PUSH1 0x4 SLOAD DUP5 SUB PUSH2 0x107F JUMPI PUSH2 0x107F PUSH2 0x1977 JUMP JUMPDEST POP POP POP POP JUMP JUMPDEST PUSH2 0x108D PUSH2 0x194A JUMP JUMPDEST PUSH2 0x1097 PUSH1 0x0 PUSH2 0x19DF JUMP JUMPDEST JUMP JUMPDEST PUSH1 0x2 SLOAD PUSH1 0x1 PUSH1 0x1 PUSH1 0xA0 SHL SUB AND CALLER EQ DUP1 PUSH2 0x10BC JUMPI POP PUSH1 0x0 SLOAD PUSH1 0x1 PUSH1 0x1 PUSH1 0xA0 SHL SUB AND CALLER EQ JUMPDEST PUSH2 0x10F9 JUMPI PUSH1 0x40 MLOAD PUSH3 0x461BCD PUSH1 0xE5 SHL DUP2 MSTORE PUSH1 0x20 PUSH1 0x4 DUP3 ADD MSTORE PUSH1 0xE PUSH1 0x24 DUP3 ADD MSTORE PUSH14 0x139BDD08185D5D1A1BDC9A5E9959 PUSH1 0x92 SHL PUSH1 0x44 DUP3 ADD MSTORE PUSH1 0x64 ADD PUSH2 0x669 JUMP JUMPDEST PUSH1 0x0 DUP2 GT PUSH2 0x1139 JUMPI PUSH1 0x40 MLOAD PUSH3 0x461BCD PUSH1 0xE5 SHL DUP2 MSTORE PUSH1 0x20 PUSH1 0x4 DUP3 ADD MSTORE PUSH1 0xD PUSH1 0x24 DUP3 ADD MSTORE PUSH13 0x496E76616C6964207072696365 PUSH1 0x98 SHL PUSH1 0x44 DUP3 ADD MSTORE PUSH1 0x64 ADD PUSH2 0x669 JUMP JUMPDEST PUSH1 0x3 DUP2 SWAP1 SSTORE PUSH1 0x40 MLOAD DUP2 DUP2 MSTORE CALLER SWAP1 PUSH32 0xD8418C2EDEA4801B73E29837A4F03AC739CDDFB84A3E033356997AB034369A61 SWAP1 PUSH1 0x20 ADD PUSH2 0xE47 JUMP JUMPDEST PUSH1 0x0 DUP2 DUP2 MSTORE PUSH1 0x8 PUSH1 0x20 DUP2 DUP2 MSTORE PUSH1 0x40 DUP1 DUP5 KECCAK256 DUP2 MLOAD PUSH2 0x120 DUP2 ADD DUP4 MSTORE DUP2 SLOAD PUSH1 0x1 PUSH1 0x1 PUSH1 0xA0 SHL SUB AND DUP2 MSTORE PUSH1 0x1 DUP3 ADD SLOAD DUP2 DUP6 ADD MSTORE PUSH1 0x2 DUP3 ADD SLOAD DUP2 DUP5 ADD MSTORE PUSH1 0x3 DUP3 ADD SLOAD PUSH1 0x60 DUP3 ADD MSTORE PUSH1 0x4 DUP3 ADD SLOAD PUSH1 0xFF SWAP1 DUP2 AND ISZERO ISZERO PUSH1 0x80 DUP4 ADD MSTORE PUSH1 0x5 DUP4 ADD SLOAD PUSH1 0xA0 DUP4 ADD MSTORE PUSH1 0x6 DUP1 DUP5 ADD SLOAD DUP3 AND ISZERO ISZERO PUSH1 0xC0 DUP5 ADD MSTORE PUSH1 0x7 DUP1 DUP6 ADD SLOAD PUSH1 0xE0 DUP6 ADD MSTORE SWAP4 SWAP1 SWAP7 ADD SLOAD PUSH2 0x100 DUP4 ADD DUP2 SWAP1 MSTORE DUP8 MSTORE SWAP2 SWAP1 SWAP4 MSTORE SWAP1 DUP5 KECCAK256 SWAP3 DUP4 ADD SLOAD DUP5 SWAP4 DUP5 SWAP4 DUP5 SWAP4 SWAP1 SWAP3 DUP5 SWAP2 AND PUSH2 0x1219 JUMPI PUSH1 0x3 SLOAD PUSH2 0x121F JUMP JUMPDEST DUP2 PUSH1 0x3 ADD SLOAD JUMPDEST PUSH1 0xA0 DUP5 ADD MLOAD SWAP1 SWAP2 POP DUP2 GT PUSH1 0x0 DUP2 DUP1 ISZERO PUSH2 0x1239 JUMPI POP DUP5 PUSH1 0x80 ADD MLOAD JUMPDEST DUP1 PUSH2 0x124F JUMPI POP DUP2 ISZERO DUP1 ISZERO PUSH2 0x124F JUMPI POP DUP5 PUSH1 0x80 ADD MLOAD ISZERO JUMPDEST PUSH1 0x6 SWAP1 SWAP5 ADD SLOAD PUSH1 0xA0 SWAP1 SWAP6 ADD MLOAD SWAP4 SWAP9 POP POP PUSH1 0xFF SWAP1 SWAP4 AND SWAP6 POP SWAP1 SWAP4 POP SWAP2 POP POP SWAP2 SWAP4 POP SWAP2 SWAP4 JUMP JUMPDEST PUSH2 0x127B PUSH2 0x18D7 JUMP JUMPDEST PUSH8 0xDE0B6B3A7640000 DUP3 LT ISZERO PUSH2 0x12C9 JUMPI PUSH1 0x40 MLOAD PUSH3 0x461BCD PUSH1 0xE5 SHL DUP2 MSTORE PUSH1 0x20 PUSH1 0x4 DUP3 ADD MSTORE PUSH1 0x13 PUSH1 0x24 DUP3 ADD MSTORE PUSH19 0x42656C6F77206D696E696D756D207374616B65 PUSH1 0x68 SHL PUSH1 0x44 DUP3 ADD MSTORE PUSH1 0x64 ADD PUSH2 0x669 JUMP JUMPDEST PUSH9 0x3635C9ADC5DEA00000 DUP3 GT ISZERO PUSH2 0x1318 JUMPI PUSH1 0x40 MLOAD PUSH3 0x461BCD PUSH1 0xE5 SHL DUP2 MSTORE PUSH1 0x20 PUSH1 0x4 DUP3 ADD MSTORE PUSH1 0x13 PUSH1 0x24 DUP3 ADD MSTORE PUSH19 0x41626F7665206D6178696D756D207374616B65 PUSH1 0x68 SHL PUSH1 0x44 DUP3 ADD MSTORE PUSH1 0x64 ADD PUSH2 0x669 JUMP JUMPDEST PUSH1 0x4 SLOAD PUSH1 0x0 SWAP1 DUP2 MSTORE PUSH1 0x7 PUSH1 0x20 MSTORE PUSH1 0x40 SWAP1 KECCAK256 PUSH1 0x1 ADD SLOAD PUSH2 0x133A SWAP1 PUSH2 0xE10 SWAP1 PUSH2 0x1C0F JUMP JUMPDEST TIMESTAMP LT PUSH2 0x1392 JUMPI PUSH1 0x40 MLOAD PUSH3 0x461BCD PUSH1 0xE5 SHL DUP2 MSTORE PUSH1 0x20 PUSH1 0x4 DUP3 ADD MSTORE PUSH1 0x21 PUSH1 0x24 DUP3 ADD MSTORE PUSH32 0x50726564696374696F6E7320636C6F73656420666F72207468697320726F756E PUSH1 0x44 DUP3 ADD MSTORE PUSH1 0x19 PUSH1 0xFA SHL PUSH1 0x64 DUP3 ADD MSTORE PUSH1 0x84 ADD PUSH2 0x669 JUMP JUMPDEST PUSH1 0x40 MLOAD PUSH4 0x23B872DD PUSH1 0xE0 SHL DUP2 MSTORE CALLER PUSH1 0x4 DUP3 ADD MSTORE ADDRESS PUSH1 0x24 DUP3 ADD MSTORE PUSH1 0x44 DUP2 ADD DUP4 SWAP1 MSTORE PUSH32 0x0 PUSH1 0x1 PUSH1 0x1 PUSH1 0xA0 SHL SUB AND SWAP1 PUSH4 0x23B872DD SWAP1 PUSH1 0x64 ADD PUSH1 0x20 PUSH1 0x40 MLOAD DUP1 DUP4 SUB DUP2 PUSH1 0x0 DUP8 GAS CALL ISZERO DUP1 ISZERO PUSH2 0x1405 JUMPI RETURNDATASIZE PUSH1 0x0 DUP1 RETURNDATACOPY RETURNDATASIZE PUSH1 0x0 REVERT JUMPDEST POP POP POP POP PUSH1 0x40 MLOAD RETURNDATASIZE PUSH1 0x1F NOT PUSH1 0x1F DUP3 ADD AND DUP3 ADD DUP1 PUSH1 0x40 MSTORE POP DUP2 ADD SWAP1 PUSH2 0x1429 SWAP2 SWAP1 PUSH2 0x1C3B JUMP JUMPDEST PUSH2 0x1445 JUMPI PUSH1 0x40 MLOAD PUSH3 0x461BCD PUSH1 0xE5 SHL DUP2 MSTORE PUSH1 0x4 ADD PUSH2 0x669 SWAP1 PUSH2 0x1C58 JUMP JUMPDEST PUSH1 0x0 PUSH2 0x1450 PUSH1 0x3 SLOAD SWAP1 JUMP JUMPDEST PUSH1 0x6 DUP1 SLOAD SWAP2 SWAP3 POP PUSH1 0x0 SWAP2 SWAP1 DUP3 PUSH2 0x1465 DUP4 PUSH2 0x1C22 JUMP JUMPDEST SWAP2 SWAP1 POP SSTORE SWAP1 POP PUSH1 0x40 MLOAD DUP1 PUSH2 0x120 ADD PUSH1 0x40 MSTORE DUP1 CALLER PUSH1 0x1 PUSH1 0x1 PUSH1 0xA0 SHL SUB AND DUP2 MSTORE PUSH1 0x20 ADD DUP6 DUP2 MSTORE PUSH1 0x20 ADD TIMESTAMP DUP2 MSTORE PUSH1 0x20 ADD PUSH3 0x15180 TIMESTAMP PUSH2 0x14A1 SWAP2 SWAP1 PUSH2 0x1BFC JUMP JUMPDEST DUP2 MSTORE DUP5 ISZERO DUP1 ISZERO PUSH1 0x20 DUP1 DUP5 ADD SWAP2 SWAP1 SWAP2 MSTORE PUSH1 0x40 DUP1 DUP5 ADD DUP8 SWAP1 MSTORE PUSH1 0x0 PUSH1 0x60 DUP1 DUP7 ADD DUP3 SWAP1 MSTORE PUSH1 0x80 DUP1 DUP8 ADD DUP10 SWAP1 MSTORE PUSH1 0x4 DUP1 SLOAD PUSH1 0xA0 SWAP9 DUP10 ADD MSTORE DUP10 DUP5 MSTORE PUSH1 0x8 DUP1 DUP8 MSTORE DUP6 DUP6 KECCAK256 DUP11 MLOAD DUP2 SLOAD PUSH1 0x1 PUSH1 0x1 PUSH1 0xA0 SHL SUB SWAP1 SWAP2 AND PUSH1 0x1 PUSH1 0x1 PUSH1 0xA0 SHL SUB NOT SWAP1 SWAP2 AND OR DUP2 SSTORE DUP11 DUP9 ADD MLOAD PUSH1 0x1 DUP3 ADD SSTORE DUP11 DUP8 ADD MLOAD PUSH1 0x2 DUP3 ADD SSTORE SWAP4 DUP11 ADD MLOAD PUSH1 0x3 DUP6 ADD SSTORE SWAP2 DUP10 ADD MLOAD DUP4 DUP3 ADD DUP1 SLOAD SWAP2 ISZERO ISZERO PUSH1 0xFF NOT SWAP3 DUP4 AND OR SWAP1 SSTORE SWAP8 DUP10 ADD MLOAD PUSH1 0x5 DUP5 ADD SSTORE PUSH1 0xC0 DUP10 ADD MLOAD PUSH1 0x6 DUP5 ADD DUP1 SLOAD SWAP2 ISZERO ISZERO SWAP2 SWAP1 SWAP10 AND OR SWAP1 SWAP8 SSTORE PUSH1 0xE0 DUP9 ADD MLOAD PUSH1 0x7 DUP1 DUP5 ADD SWAP2 SWAP1 SWAP2 SSTORE PUSH2 0x100 SWAP1 SWAP9 ADD MLOAD SWAP2 DUP2 ADD SWAP2 SWAP1 SWAP2 SSTORE SWAP5 SLOAD DUP2 MSTORE SWAP5 DUP3 MSTORE DUP1 DUP6 KECCAK256 DUP7 DUP7 MSTORE SWAP1 SWAP4 ADD SWAP1 MSTORE SWAP2 KECCAK256 DUP4 SWAP1 SSTORE PUSH2 0x15B6 JUMPI DUP4 PUSH1 0x7 PUSH1 0x0 PUSH1 0x4 SLOAD DUP2 MSTORE PUSH1 0x20 ADD SWAP1 DUP2 MSTORE PUSH1 0x20 ADD PUSH1 0x0 KECCAK256 PUSH1 0x4 ADD PUSH1 0x0 DUP3 DUP3 SLOAD PUSH2 0x15AB SWAP2 SWAP1 PUSH2 0x1BFC JUMP JUMPDEST SWAP1 SWAP2 SSTORE POP PUSH2 0x15E0 SWAP1 POP JUMP JUMPDEST PUSH1 0x4 SLOAD PUSH1 0x0 SWAP1 DUP2 MSTORE PUSH1 0x7 PUSH1 0x20 MSTORE PUSH1 0x40 DUP2 KECCAK256 PUSH1 0x5 ADD DUP1 SLOAD DUP7 SWAP3 SWAP1 PUSH2 0x15DA SWAP1 DUP5 SWAP1 PUSH2 0x1BFC JUMP JUMPDEST SWAP1 SWAP2 SSTORE POP POP JUMPDEST PUSH1 0x4 SLOAD PUSH1 0x0 SWAP1 DUP2 MSTORE PUSH1 0x7 PUSH1 0x20 DUP2 DUP2 MSTORE PUSH1 0x40 DUP1 DUP5 KECCAK256 CALLER DUP1 DUP7 MSTORE SWAP4 ADD DUP3 MSTORE DUP1 DUP5 KECCAK256 DUP1 SLOAD PUSH1 0x1 DUP2 DUP2 ADD DUP4 SSTORE SWAP2 DUP7 MSTORE DUP4 DUP7 KECCAK256 ADD DUP7 SWAP1 SSTORE DUP4 DUP6 MSTORE PUSH1 0x9 DUP4 MSTORE DUP2 DUP6 KECCAK256 DUP1 SLOAD SWAP2 DUP3 ADD DUP2 SSTORE DUP6 MSTORE DUP3 DUP6 KECCAK256 ADD DUP6 SWAP1 SSTORE SWAP2 DUP4 MSTORE PUSH1 0xA SWAP1 MSTORE DUP2 KECCAK256 DUP1 SLOAD DUP7 SWAP3 SWAP1 PUSH2 0x1645 SWAP1 DUP5 SWAP1 PUSH2 0x1BFC JUMP JUMPDEST SWAP1 SWAP2 SSTORE POP POP PUSH1 0x4 SLOAD PUSH1 0x40 DUP1 MLOAD DUP7 DUP2 MSTORE DUP6 ISZERO ISZERO PUSH1 0x20 DUP3 ADD MSTORE SWAP1 DUP2 ADD DUP4 SWAP1 MSTORE PUSH1 0x60 DUP2 ADD DUP5 SWAP1 MSTORE CALLER SWAP1 PUSH32 0xC9EAE9DE253B4E39A0E1A1F8DA1230043FA8710C8DB024868AC469602D37738A SWAP1 PUSH1 0x80 ADD PUSH1 0x40 MLOAD DUP1 SWAP2 SUB SWAP1 LOG3 POP POP PUSH2 0x16A3 PUSH1 0x1 DUP1 SSTORE JUMP JUMPDEST POP POP JUMP JUMPDEST PUSH1 0x9 PUSH1 0x20 MSTORE DUP2 PUSH1 0x0 MSTORE PUSH1 0x40 PUSH1 0x0 KECCAK256 DUP2 DUP2 SLOAD DUP2 LT PUSH2 0x16C3 JUMPI PUSH1 0x0 DUP1 REVERT JUMPDEST SWAP1 PUSH1 0x0 MSTORE PUSH1 0x20 PUSH1 0x0 KECCAK256 ADD PUSH1 0x0 SWAP2 POP SWAP2 POP POP SLOAD DUP2 JUMP JUMPDEST PUSH1 0x1 PUSH1 0x1 PUSH1 0xA0 SHL SUB DUP2 AND PUSH1 0x0 SWAP1 DUP2 MSTORE PUSH1 0x9 PUSH1 0x20 SWAP1 DUP2 MSTORE PUSH1 0x40 DUP1 DUP4 KECCAK256 DUP1 SLOAD DUP3 MLOAD DUP2 DUP6 MUL DUP2 ADD DUP6 ADD SWAP1 SWAP4 MSTORE DUP1 DUP4 MSTORE PUSH1 0x60 SWAP5 SWAP4 DUP5 SWAP4 SWAP3 SWAP2 SWAP1 DUP4 ADD DUP3 DUP3 DUP1 ISZERO PUSH2 0x173C JUMPI PUSH1 0x20 MUL DUP3 ADD SWAP2 SWAP1 PUSH1 0x0 MSTORE PUSH1 0x20 PUSH1 0x0 KECCAK256 SWAP1 JUMPDEST DUP2 SLOAD DUP2 MSTORE PUSH1 0x20 ADD SWAP1 PUSH1 0x1 ADD SWAP1 DUP1 DUP4 GT PUSH2 0x1728 JUMPI JUMPDEST POP POP POP POP POP SWAP1 POP PUSH1 0x0 JUMPDEST DUP2 MLOAD DUP2 LT ISZERO PUSH2 0x17AA JUMPI PUSH1 0x8 PUSH1 0x0 DUP4 DUP4 DUP2 MLOAD DUP2 LT PUSH2 0x1765 JUMPI PUSH2 0x1765 PUSH2 0x1C81 JUMP JUMPDEST PUSH1 0x20 SWAP1 DUP2 MUL SWAP2 SWAP1 SWAP2 ADD DUP2 ADD MLOAD DUP3 MSTORE DUP2 ADD SWAP2 SWAP1 SWAP2 MSTORE PUSH1 0x40 ADD PUSH1 0x0 KECCAK256 PUSH1 0x6 ADD SLOAD PUSH1 0xFF AND PUSH2 0x1798 JUMPI DUP3 PUSH2 0x1794 DUP2 PUSH2 0x1C22 JUMP JUMPDEST SWAP4 POP POP JUMPDEST DUP1 PUSH2 0x17A2 DUP2 PUSH2 0x1C22 JUMP JUMPDEST SWAP2 POP POP PUSH2 0x1746 JUMP JUMPDEST POP PUSH1 0x0 DUP3 PUSH8 0xFFFFFFFFFFFFFFFF DUP2 GT ISZERO PUSH2 0x17C6 JUMPI PUSH2 0x17C6 PUSH2 0x1C97 JUMP JUMPDEST PUSH1 0x40 MLOAD SWAP1 DUP1 DUP3 MSTORE DUP1 PUSH1 0x20 MUL PUSH1 0x20 ADD DUP3 ADD PUSH1 0x40 MSTORE DUP1 ISZERO PUSH2 0x17EF JUMPI DUP2 PUSH1 0x20 ADD PUSH1 0x20 DUP3 MUL DUP1 CALLDATASIZE DUP4 CALLDATACOPY ADD SWAP1 POP JUMPDEST POP SWAP1 POP PUSH1 0x0 DUP1 JUMPDEST DUP4 MLOAD DUP2 LT ISZERO PUSH2 0x1891 JUMPI PUSH1 0x8 PUSH1 0x0 DUP6 DUP4 DUP2 MLOAD DUP2 LT PUSH2 0x1815 JUMPI PUSH2 0x1815 PUSH2 0x1C81 JUMP JUMPDEST PUSH1 0x20 SWAP1 DUP2 MUL SWAP2 SWAP1 SWAP2 ADD DUP2 ADD MLOAD DUP3 MSTORE DUP2 ADD SWAP2 SWAP1 SWAP2 MSTORE PUSH1 0x40 ADD PUSH1 0x0 KECCAK256 PUSH1 0x6 ADD SLOAD PUSH1 0xFF AND PUSH2 0x187F JUMPI DUP4 DUP2 DUP2 MLOAD DUP2 LT PUSH2 0x184C JUMPI PUSH2 0x184C PUSH2 0x1C81 JUMP JUMPDEST PUSH1 0x20 MUL PUSH1 0x20 ADD ADD MLOAD DUP4 DUP4 DUP1 PUSH2 0x1860 SWAP1 PUSH2 0x1C22 JUMP JUMPDEST SWAP5 POP DUP2 MLOAD DUP2 LT PUSH2 0x1872 JUMPI PUSH2 0x1872 PUSH2 0x1C81 JUMP JUMPDEST PUSH1 0x20 MUL PUSH1 0x20 ADD ADD DUP2 DUP2 MSTORE POP POP JUMPDEST DUP1 PUSH2 0x1889 DUP2 PUSH2 0x1C22 JUMP JUMPDEST SWAP2 POP POP PUSH2 0x17F6 JUMP JUMPDEST POP SWAP1 SWAP6 SWAP5 POP POP POP POP POP JUMP JUMPDEST PUSH2 0x18A4 PUSH2 0x194A JUMP JUMPDEST PUSH1 0x1 PUSH1 0x1 PUSH1 0xA0 SHL SUB DUP2 AND PUSH2 0x18CE JUMPI PUSH1 0x40 MLOAD PUSH4 0x1E4FBDF7 PUSH1 0xE0 SHL DUP2 MSTORE PUSH1 0x0 PUSH1 0x4 DUP3 ADD MSTORE PUSH1 0x24 ADD PUSH2 0x669 JUMP JUMPDEST PUSH2 0xA3E DUP2 PUSH2 0x19DF JUMP JUMPDEST PUSH1 0x2 PUSH1 0x1 SLOAD SUB PUSH2 0x18FA JUMPI PUSH1 0x40 MLOAD PUSH4 0x3EE5AEB5 PUSH1 0xE0 SHL DUP2 MSTORE PUSH1 0x4 ADD PUSH1 0x40 MLOAD DUP1 SWAP2 SUB SWAP1 REVERT JUMPDEST PUSH1 0x2 PUSH1 0x1 SSTORE JUMP JUMPDEST PUSH1 0x0 DUP3 DUP2 MSTORE PUSH1 0x7 PUSH1 0x20 MSTORE PUSH1 0x40 DUP2 KECCAK256 PUSH1 0x2 DUP2 ADD SLOAD DUP3 SWAP2 SWAP1 DUP5 GT DUP1 ISZERO PUSH2 0x1932 JUMPI DUP2 PUSH1 0x4 ADD SLOAD SWAP4 POP DUP2 PUSH1 0x5 ADD SLOAD SWAP3 POP PUSH2 0x1941 JUMP JUMPDEST DUP2 PUSH1 0x5 ADD SLOAD SWAP4 POP DUP2 PUSH1 0x4 ADD SLOAD SWAP3 POP JUMPDEST POP POP SWAP3 POP SWAP3 SWAP1 POP JUMP JUMPDEST PUSH1 0x0 SLOAD PUSH1 0x1 PUSH1 0x1 PUSH1 0xA0 SHL SUB AND CALLER EQ PUSH2 0x1097 JUMPI PUSH1 0x40 MLOAD PUSH4 0x118CDAA7 PUSH1 0xE0 SHL DUP2 MSTORE CALLER PUSH1 0x4 DUP3 ADD MSTORE PUSH1 0x24 ADD PUSH2 0x669 JUMP JUMPDEST PUSH1 0x4 DUP1 SLOAD SWAP1 PUSH1 0x0 PUSH2 0x1987 DUP4 PUSH2 0x1C22 JUMP JUMPDEST SWAP1 SWAP2 SSTORE POP POP PUSH1 0x4 SLOAD PUSH1 0x0 SWAP1 DUP2 MSTORE PUSH1 0x7 PUSH1 0x20 MSTORE PUSH1 0x40 SWAP1 KECCAK256 TIMESTAMP SWAP1 DUP2 SWAP1 SSTORE PUSH2 0x19B0 SWAP1 PUSH3 0x15180 SWAP1 PUSH2 0x1BFC JUMP JUMPDEST PUSH1 0x4 SLOAD PUSH1 0x0 SWAP1 DUP2 MSTORE PUSH1 0x7 PUSH1 0x20 MSTORE PUSH1 0x40 SWAP1 KECCAK256 PUSH1 0x1 ADD SSTORE PUSH1 0x3 SLOAD PUSH1 0x4 SLOAD PUSH1 0x0 SWAP1 DUP2 MSTORE PUSH1 0x7 PUSH1 0x20 MSTORE PUSH1 0x40 SWAP1 KECCAK256 PUSH1 0x2 ADD SSTORE JUMP JUMPDEST PUSH1 0x0 DUP1 SLOAD PUSH1 0x1 PUSH1 0x1 PUSH1 0xA0 SHL SUB DUP4 DUP2 AND PUSH1 0x1 PUSH1 0x1 PUSH1 0xA0 SHL SUB NOT DUP4 AND DUP2 OR DUP5 SSTORE PUSH1 0x40 MLOAD SWAP2 SWAP1 SWAP3 AND SWAP3 DUP4 SWAP2 PUSH32 0x8BE0079C531659141344CD1FD0A4F28419497F9722A3DAAFE3B4186F6B6457E0 SWAP2 SWAP1 LOG3 POP POP JUMP JUMPDEST PUSH1 0x0 PUSH1 0x20 DUP3 DUP5 SUB SLT ISZERO PUSH2 0x1A41 JUMPI PUSH1 0x0 DUP1 REVERT JUMPDEST POP CALLDATALOAD SWAP2 SWAP1 POP JUMP JUMPDEST DUP1 CALLDATALOAD PUSH1 0x1 PUSH1 0x1 PUSH1 0xA0 SHL SUB DUP2 AND DUP2 EQ PUSH2 0x1A5F JUMPI PUSH1 0x0 DUP1 REVERT JUMPDEST SWAP2 SWAP1 POP JUMP JUMPDEST PUSH1 0x0 PUSH1 0x20 DUP3 DUP5 SUB SLT ISZERO PUSH2 0x1A76 JUMPI PUSH1 0x0 DUP1 REVERT JUMPDEST PUSH2 0x1A7F DUP3 PUSH2 0x1A48 JUMP JUMPDEST SWAP4 SWAP3 POP POP POP JUMP JUMPDEST PUSH1 0x0 DUP1 PUSH1 0x20 DUP4 DUP6 SUB SLT ISZERO PUSH2 0x1A99 JUMPI PUSH1 0x0 DUP1 REVERT JUMPDEST DUP3 CALLDATALOAD PUSH8 0xFFFFFFFFFFFFFFFF DUP1 DUP3 GT ISZERO PUSH2 0x1AB1 JUMPI PUSH1 0x0 DUP1 REVERT JUMPDEST DUP2 DUP6 ADD SWAP2 POP DUP6 PUSH1 0x1F DUP4 ADD SLT PUSH2 0x1AC5 JUMPI PUSH1 0x0 DUP1 REVERT JUMPDEST DUP2 CALLDATALOAD DUP2 DUP2 GT ISZERO PUSH2 0x1AD4 JUMPI PUSH1 0x0 DUP1 REVERT JUMPDEST DUP7 PUSH1 0x20 DUP3 PUSH1 0x5 SHL DUP6 ADD ADD GT ISZERO PUSH2 0x1AE9 JUMPI PUSH1 0x0 DUP1 REVERT JUMPDEST PUSH1 0x20 SWAP3 SWAP1 SWAP3 ADD SWAP7 SWAP2 SWAP6 POP SWAP1 SWAP4 POP POP POP POP JUMP JUMPDEST DUP1 ISZERO ISZERO DUP2 EQ PUSH2 0xA3E JUMPI PUSH1 0x0 DUP1 REVERT JUMPDEST PUSH1 0x0 DUP1 PUSH1 0x40 DUP4 DUP6 SUB SLT ISZERO PUSH2 0x1B1C JUMPI PUSH1 0x0 DUP1 REVERT JUMPDEST DUP3 CALLDATALOAD SWAP2 POP PUSH1 0x20 DUP4 ADD CALLDATALOAD PUSH2 0x1B2E DUP2 PUSH2 0x1AFB JUMP JUMPDEST DUP1 SWAP2 POP POP SWAP3 POP SWAP3 SWAP1 POP JUMP JUMPDEST PUSH1 0x0 DUP1 PUSH1 0x40 DUP4 DUP6 SUB SLT ISZERO PUSH2 0x1B4C JUMPI PUSH1 0x0 DUP1 REVERT JUMPDEST PUSH2 0x1B55 DUP4 PUSH2 0x1A48 JUMP JUMPDEST SWAP5 PUSH1 0x20 SWAP4 SWAP1 SWAP4 ADD CALLDATALOAD SWAP4 POP POP POP JUMP JUMPDEST PUSH1 0x20 DUP1 DUP3 MSTORE DUP3 MLOAD DUP3 DUP3 ADD DUP2 SWAP1 MSTORE PUSH1 0x0 SWAP2 SWAP1 DUP5 DUP3 ADD SWAP1 PUSH1 0x40 DUP6 ADD SWAP1 DUP5 JUMPDEST DUP2 DUP2 LT ISZERO PUSH2 0x1B9B JUMPI DUP4 MLOAD DUP4 MSTORE SWAP3 DUP5 ADD SWAP3 SWAP2 DUP5 ADD SWAP2 PUSH1 0x1 ADD PUSH2 0x1B7F JUMP JUMPDEST POP SWAP1 SWAP7 SWAP6 POP POP POP POP POP POP JUMP JUMPDEST PUSH4 0x4E487B71 PUSH1 0xE0 SHL PUSH1 0x0 MSTORE PUSH1 0x11 PUSH1 0x4 MSTORE PUSH1 0x24 PUSH1 0x0 REVERT JUMPDEST DUP1 DUP3 MUL DUP2 ISZERO DUP3 DUP3 DIV DUP5 EQ OR PUSH2 0x1BD4 JUMPI PUSH2 0x1BD4 PUSH2 0x1BA7 JUMP JUMPDEST SWAP3 SWAP2 POP POP JUMP JUMPDEST PUSH1 0x0 DUP3 PUSH2 0x1BF7 JUMPI PUSH4 0x4E487B71 PUSH1 0xE0 SHL PUSH1 0x0 MSTORE PUSH1 0x12 PUSH1 0x4 MSTORE PUSH1 0x24 PUSH1 0x0 REVERT JUMPDEST POP DIV SWAP1 JUMP JUMPDEST DUP1 DUP3 ADD DUP1 DUP3 GT ISZERO PUSH2 0x1BD4 JUMPI PUSH2 0x1BD4 PUSH2 0x1BA7 JUMP JUMPDEST DUP2 DUP2 SUB DUP2 DUP2 GT ISZERO PUSH2 0x1BD4 JUMPI PUSH2 0x1BD4 PUSH2 0x1BA7 JUMP JUMPDEST PUSH1 0x0 PUSH1 0x1 DUP3 ADD PUSH2 0x1C34 JUMPI PUSH2 0x1C34 PUSH2 0x1BA7 JUMP JUMPDEST POP PUSH1 0x1 ADD SWAP1 JUMP JUMPDEST PUSH1 0x0 PUSH1 0x20 DUP3 DUP5 SUB SLT ISZERO PUSH2 0x1C4D JUMPI PUSH1 0x0 DUP1 REVERT JUMPDEST DUP2 MLOAD PUSH2 0x1A7F DUP2 PUSH2 0x1AFB JUMP JUMPDEST PUSH1 0x20 DUP1 DUP3 MSTORE PUSH1 0xF SWAP1 DUP3 ADD MSTORE PUSH15 0x151C985B9CD9995C8819985A5B1959 PUSH1 0x8A SHL PUSH1 0x40 DUP3 ADD MSTORE PUSH1 0x60 ADD SWAP1 JUMP JUMPDEST PUSH4 0x4E487B71 PUSH1 0xE0 SHL PUSH1 0x0 MSTORE PUSH1 0x32 PUSH1 0x4 MSTORE PUSH1 0x24 PUSH1 0x0 REVERT JUMPDEST PUSH4 0x4E487B71 PUSH1 0xE0 SHL PUSH1 0x0 MSTORE PUSH1 0x41 PUSH1 0x4 MSTORE PUSH1 0x24 PUSH1 0x0 REVERT INVALID LOG2 PUSH5 0x6970667358 0x22 SLT KECCAK256 JUMP 0xE0 0x26 0xBD SWAP15 ADD 0xAF 0xE4 SWAP9 0xB4 LOG4 0xFC 0x2B 0xA8 PUSH30 0x84244A9AE657BE174E726DDAA3C69BAE4164736F6C634300081400330000 "},"methodIdentifiers":{"FEE_DENOMINATOR()":"d73792a9","FEE_PERCENTAGE()":"000b46f8","LOCK_DURATION()":"485d3834","MAX_STAKE()":"c98517c5","MIN_STAKE()":"cb1c2b5c","PRICE_DECIMALS()":"f1a640f8","ROUND_DURATION()":"6641ea08","batchUpdatePrice(uint256[])":"401040a6","claimRewards(uint256)":"0962ef79","currentPrice()":"9d1b464a","currentRound()":"8a19c8bc","getCurrentPrice()":"eb91d37e","getPredictionResult(uint256)":"af9d26df","getRoundStats(uint256)":"2cb36b51","getUserActivePredictions(address)":"c86eb7bb","getUserStats(address)":"4e43603a","makePrediction(uint256,bool)":"b0d6f59c","neuralToken()":"70737d70","nextPredictionId()":"d8d9292e","owner()":"8da5cb5b","predictions(uint256)":"004fbbb0","priceOracle()":"2630c12f","renounceOwnership()":"715018a6","resolveRound(uint256)":"650b8725","rounds(uint256)":"8c65c81f","totalFeesCollected()":"60c6d8ae","transferOwnership(address)":"f2fde38b","updateOracle(address)":"1cb44dfc","updatePrice(uint256)":"8d6cc56d","userPredictionIds(address,uint256)":"c4751796","userTotalStaked(address)":"719de1ef","userWinStreak(address)":"e76e32ae","userWinnings(address)":"a815a4d4","withdrawFees()":"476343ee"}}}}}