{
  "_format": "hh-sol-artifact-1",
  "contractName": "NeuralToken",
  "sourceName": "contracts/NeuralToken.sol",
  "abi": [
    {
      "inputs": [],
      "stateMutability": "nonpayable",
      "type": "constructor"
    },
    {
      "inputs": [
        {
          "internalType": "address",
          "name": "spender",
          "type": "address"
        },
        {
          "internalType": "uint256",
          "name": "allowance",
          "type": "uint256"
        },
        {
          "internalType": "uint256",
          "name": "needed",
          "type": "uint256"
        }
      ],
      "name": "ERC20InsufficientAllowance",
      "type": "error"
    },
    {
      "inputs": [
        {
          "internalType": "address",
          "name": "sender",
          "type": "address"
        },
        {
          "internalType": "uint256",
          "name": "balance",
          "type": "uint256"
        },
        {
          "internalType": "uint256",
          "name": "needed",
          "type": "uint256"
        }
      ],
      "name": "ERC20InsufficientBalance",
      "type": "error"
    },
    {
      "inputs": [
        {
          "internalType": "address",
          "name": "approver",
          "type": "address"
        }
      ],
      "name": "ERC20InvalidApprover",
      "type": "error"
    },
    {
      "inputs": [
        {
          "internalType": "address",
          "name": "receiver",
          "type": "address"
        }
      ],
      "name": "ERC20InvalidReceiver",
      "type": "error"
    },
    {
      "inputs": [
        {
          "internalType": "address",
          "name": "sender",
          "type": "address"
        }
      ],
      "name": "ERC20InvalidSender",
      "type": "error"
    },
    {
      "inputs": [
        {
          "internalType": "address",
          "name": "spender",
          "type": "address"
        }
      ],
      "name": "ERC20InvalidSpender",
      "type": "error"
    },
    {
      "inputs": [
        {
          "internalType": "address",
          "name": "owner",
          "type": "address"
        }
      ],
      "name": "OwnableInvalidOwner",
      "type": "error"
    },
    {
      "inputs": [
        {
          "internalType": "address",
          "name": "account",
          "type": "address"
        }
      ],
      "name": "OwnableUnauthorizedAccount",
      "type": "error"
    },
    {
      "anonymous": false,
      "inputs": [
        {
          "indexed": true,
          "internalType": "address",
          "name": "owner",
          "type": "address"
        },
        {
          "indexed": true,
          "internalType": "address",
          "name": "spender",
          "type": "address"
        },
        {
          "indexed": false,
          "internalType": "uint256",
          "name": "value",
          "type": "uint256"
        }
      ],
      "name": "Approval",
      "type": "event"
    },
    {
      "anonymous": false,
      "inputs": [
        {
          "indexed": true,
          "internalType": "address",
          "name": "previousOwner",
          "type": "address"
        },
        {
          "indexed": true,
          "internalType": "address",
          "name": "newOwner",
          "type": "address"
        }
      ],
      "name": "OwnershipTransferred",
      "type": "event"
    },
    {
      "anonymous": false,
      "inputs": [
        {
          "indexed": true,
          "internalType": "address",
          "name": "newContract",
          "type": "address"
        }
      ],
      "name": "PredictionContractSet",
      "type": "event"
    },
    {
      "anonymous": false,
      "inputs": [
        {
          "indexed": true,
          "internalType": "address",
          "name": "burner",
          "type": "address"
        },
        {
          "indexed": false,
          "internalType": "uint256",
          "name": "amount",
          "type": "uint256"
        }
      ],
      "name": "TokensBurned",
      "type": "event"
    },
    {
      "anonymous": false,
      "inputs": [
        {
          "indexed": true,
          "internalType": "address",
          "name": "from",
          "type": "address"
        },
        {
          "indexed": true,
          "internalType": "address",
          "name": "to",
          "type": "address"
        },
        {
          "indexed": false,
          "internalType": "uint256",
          "name": "value",
          "type": "uint256"
        }
      ],
      "name": "Transfer",
      "type": "event"
    },
    {
      "inputs": [],
      "name": "MAX_SUPPLY",
      "outputs": [
        {
          "internalType": "uint256",
          "name": "",
          "type": "uint256"
        }
      ],
      "stateMutability": "view",
      "type": "function"
    },
    {
      "inputs": [
        {
          "internalType": "address",
          "name": "owner",
          "type": "address"
        },
        {
          "internalType": "address",
          "name": "spender",
          "type": "address"
        }
      ],
      "name": "allowance",
      "outputs": [
        {
          "internalType": "uint256",
          "name": "",
          "type": "uint256"
        }
      ],
      "stateMutability": "view",
      "type": "function"
    },
    {
      "inputs": [
        {
          "internalType": "address",
          "name": "spender",
          "type": "address"
        },
        {
          "internalType": "uint256",
          "name": "value",
          "type": "uint256"
        }
      ],
      "name": "approve",
      "outputs": [
        {
          "internalType": "bool",
          "name": "",
          "type": "bool"
        }
      ],
      "stateMutability": "nonpayable",
      "type": "function"
    },
    {
      "inputs": [
        {
          "internalType": "address",
          "name": "account",
          "type": "address"
        }
      ],
      "name": "balanceOf",
      "outputs": [
        {
          "internalType": "uint256",
          "name": "",
          "type": "uint256"
        }
      ],
      "stateMutability": "view",
      "type": "function"
    },
    {
      "inputs": [
        {
          "internalType": "uint256",
          "name": "amount",
          "type": "uint256"
        }
      ],
      "name": "burn",
      "outputs": [],
      "stateMutability": "nonpayable",
      "type": "function"
    },
    {
      "inputs": [],
      "name": "decimals",
      "outputs": [
        {
          "internalType": "uint8",
          "name": "",
          "type": "uint8"
        }
      ],
      "stateMutability": "view",
      "type": "function"
    },
    {
      "inputs": [],
      "name": "name",
      "outputs": [
        {
          "internalType": "string",
          "name": "",
          "type": "string"
        }
      ],
      "stateMutability": "view",
      "type": "function"
    },
    {
      "inputs": [],
      "name": "owner",
      "outputs": [
        {
          "internalType": "address",
          "name": "",
          "type": "address"
        }
      ],
      "stateMutability": "view",
      "type": "function"
    },
    {
      "inputs": [],
      "name": "predictionContract",
      "outputs": [
        {
          "internalType": "address",
          "name": "",
          "type": "address"
        }
      ],
      "stateMutability": "view",
      "type": "function"
    },
    {
      "inputs": [],
      "name": "renounceOwnership",
      "outputs": [],
      "stateMutability": "nonpayable",
      "type": "function"
    },
    {
      "inputs": [
        {
          "internalType": "address",
          "name": "_contract",
          "type": "address"
        }
      ],
      "name": "setPredictionContract",
      "outputs": [],
      "stateMutability": "nonpayable",
      "type": "function"
    },
    {
      "inputs": [],
      "name": "symbol",
      "outputs": [
        {
          "internalType": "string",
          "name": "",
          "type": "string"
        }
      ],
      "stateMutability": "view",
      "type": "function"
    },
    {
      "inputs": [],
      "name": "totalSupply",
      "outputs": [
        {
          "internalType": "uint256",
          "name": "",
          "type": "uint256"
        }
      ],
      "stateMutability": "view",
      "type": "function"
    },
    {
      "inputs": [
        {
          "internalType": "address",
          "name": "to",
          "type": "address"
        },
        {
          "internalType": "uint256",
          "name": "value",
          "type": "uint256"
        }
      ],
      "name": "transfer",
      "outputs": [
        {
          "internalType": "bool",
          "name": "",
          "type": "bool"
        }
      ],
      "stateMutability": "nonpayable",
      "type": "function"
    },
    {
      "inputs": [
        {
          "internalType": "address",
          "name": "from",
          "type": "address"
        },
        {
          "internalType": "address",
          "name": "to",
          "type": "address"
        },
        {
          "internalType": "uint256",
          "name": "value",
          "type": "uint256"
        }
      ],
      "name": "transferFrom",
      "outputs": [
        {
          "internalType": "bool",
          "name": "",
          "type": "bool"
        }
      ],
      "stateMutability": "nonpayable",
      "type": "function"
    },
    {
      "inputs": [
        {
          "internalType": "address",
          "name": "newOwner",
          "type": "address"
        }
      ],
      "name": "transferOwnership",
      "outputs": [],
      "stateMutability": "nonpayable",
      "type": "function"
    }
  ],
  "bytecode": "0x60806040523480156200001157600080fd5b50336040518060400160405280600781526020016613995d5c99585b60ca1b8152506040518060400160405280600681526020016513915554905360d21b815250816003908162000063919062000336565b50600462000072828262000336565b5050506001600160a01b038116620000a557604051631e4fbdf760e01b8152600060048201526024015b60405180910390fd5b620000b081620000ce565b50620000c8336a52b7d2dcc80cd2e400000062000120565b6200042a565b600580546001600160a01b038381166001600160a01b0319831681179093556040519116919082907f8be0079c531659141344cd1fd0a4f28419497f9722a3daafe3b4186f6b6457e090600090a35050565b6001600160a01b0382166200014c5760405163ec442f0560e01b8152600060048201526024016200009c565b6200015a600083836200015e565b5050565b6001600160a01b0383166200018d57806002600082825462000181919062000402565b90915550620002019050565b6001600160a01b03831660009081526020819052604090205481811015620001e25760405163391434e360e21b81526001600160a01b038516600482015260248101829052604481018390526064016200009c565b6001600160a01b03841660009081526020819052604090209082900390555b6001600160a01b0382166200021f576002805482900390556200023e565b6001600160a01b03821660009081526020819052604090208054820190555b816001600160a01b0316836001600160a01b03167fddf252ad1be2c89b69c2b068fc378daa952ba7f163c4a11628f55a4df523b3ef836040516200028491815260200190565b60405180910390a3505050565b634e487b7160e01b600052604160045260246000fd5b600181811c90821680620002bc57607f821691505b602082108103620002dd57634e487b7160e01b600052602260045260246000fd5b50919050565b601f8211156200033157600081815260208120601f850160051c810160208610156200030c5750805b601f850160051c820191505b818110156200032d5782815560010162000318565b5050505b505050565b81516001600160401b0381111562000352576200035262000291565b6200036a81620003638454620002a7565b84620002e3565b602080601f831160018114620003a25760008415620003895750858301515b600019600386901b1c1916600185901b1785556200032d565b600085815260208120601f198616915b82811015620003d357888601518255948401946001909101908401620003b2565b5085821015620003f25787850151600019600388901b60f8161c191681555b5050505050600190811b01905550565b808201808211156200042457634e487b7160e01b600052601160045260246000fd5b92915050565b610a29806200043a6000396000f3fe608060405234801561001057600080fd5b50600436106101005760003560e01c8063715018a611610097578063a9059cbb11610066578063a9059cbb14610212578063c6bbcaa514610225578063dd62ed3e14610238578063f2fde38b1461027157600080fd5b8063715018a6146101ca5780638da5cb5b146101d257806395d89b41146101f75780639997d09f146101ff57600080fd5b8063313ce567116100d3578063313ce5671461016b57806332cb6b0c1461017a57806342966c681461018c57806370a08231146101a157600080fd5b806306fdde0314610105578063095ea7b31461012357806318160ddd1461014657806323b872dd14610158575b600080fd5b61010d610284565b60405161011a919061085a565b60405180910390f35b6101366101313660046108c4565b610316565b604051901515815260200161011a565b6002545b60405190815260200161011a565b6101366101663660046108ee565b610330565b6040516012815260200161011a565b61014a6a52b7d2dcc80cd2e400000081565b61019f61019a36600461092a565b610354565b005b61014a6101af366004610943565b6001600160a01b031660009081526020819052604090205490565b61019f610396565b6005546001600160a01b03165b6040516001600160a01b03909116815260200161011a565b61010d6103aa565b6006546101df906001600160a01b031681565b6101366102203660046108c4565b6103b9565b61019f610233366004610943565b6103c7565b61014a610246366004610965565b6001600160a01b03918216600090815260016020908152604080832093909416825291909152205490565b61019f61027f366004610943565b610474565b60606003805461029390610998565b80601f01602080910402602001604051908101604052809291908181526020018280546102bf90610998565b801561030c5780601f106102e15761010080835404028352916020019161030c565b820191906000526020600020905b8154815290600101906020018083116102ef57829003601f168201915b5050505050905090565b6000336103248185856104b2565b60019150505b92915050565b60003361033e8582856104c4565b610349858585610543565b506001949350505050565b61035e33826105a2565b60405181815233907ffd38818f5291bf0bb3a2a48aadc06ba8757865d1dabd804585338aab3009dcb69060200160405180910390a250565b61039e6105dc565b6103a86000610609565b565b60606004805461029390610998565b600033610324818585610543565b6103cf6105dc565b6001600160a01b03811661042a5760405162461bcd60e51b815260206004820152601860248201527f496e76616c696420636f6e74726163742061646472657373000000000000000060448201526064015b60405180910390fd5b600680546001600160a01b0319166001600160a01b0383169081179091556040517f4f1aa2bd96d4255213e2a2ce4a0dc50f162e428c71cd3a11898c76afe145d93d90600090a250565b61047c6105dc565b6001600160a01b0381166104a657604051631e4fbdf760e01b815260006004820152602401610421565b6104af81610609565b50565b6104bf838383600161065b565b505050565b6001600160a01b0383811660009081526001602090815260408083209386168352929052205460001981101561053d578181101561052e57604051637dc7a0d960e11b81526001600160a01b03841660048201526024810182905260448101839052606401610421565b61053d8484848403600061065b565b50505050565b6001600160a01b03831661056d57604051634b637e8f60e11b815260006004820152602401610421565b6001600160a01b0382166105975760405163ec442f0560e01b815260006004820152602401610421565b6104bf838383610730565b6001600160a01b0382166105cc57604051634b637e8f60e11b815260006004820152602401610421565b6105d882600083610730565b5050565b6005546001600160a01b031633146103a85760405163118cdaa760e01b8152336004820152602401610421565b600580546001600160a01b038381166001600160a01b0319831681179093556040519116919082907f8be0079c531659141344cd1fd0a4f28419497f9722a3daafe3b4186f6b6457e090600090a35050565b6001600160a01b0384166106855760405163e602df0560e01b815260006004820152602401610421565b6001600160a01b0383166106af57604051634a1406b160e11b815260006004820152602401610421565b6001600160a01b038085166000908152600160209081526040808320938716835292905220829055801561053d57826001600160a01b0316846001600160a01b03167f8c5be1e5ebec7d5bd14f71427d1e84f3dd0314c0f7b2291e5b200ac8c7c3b9258460405161072291815260200190565b60405180910390a350505050565b6001600160a01b03831661075b57806002600082825461075091906109d2565b909155506107cd9050565b6001600160a01b038316600090815260208190526040902054818110156107ae5760405163391434e360e21b81526001600160a01b03851660048201526024810182905260448101839052606401610421565b6001600160a01b03841660009081526020819052604090209082900390555b6001600160a01b0382166107e957600280548290039055610808565b6001600160a01b03821660009081526020819052604090208054820190555b816001600160a01b0316836001600160a01b03167fddf252ad1be2c89b69c2b068fc378daa952ba7f163c4a11628f55a4df523b3ef8360405161084d91815260200190565b60405180910390a3505050565b600060208083528351808285015260005b818110156108875785810183015185820160400152820161086b565b506000604082860101526040601f19601f8301168501019250505092915050565b80356001600160a01b03811681146108bf57600080fd5b919050565b600080604083850312156108d757600080fd5b6108e0836108a8565b946020939093013593505050565b60008060006060848603121561090357600080fd5b61090c846108a8565b925061091a602085016108a8565b9150604084013590509250925092565b60006020828403121561093c57600080fd5b5035919050565b60006020828403121561095557600080fd5b61095e826108a8565b9392505050565b6000806040838503121561097857600080fd5b610981836108a8565b915061098f602084016108a8565b90509250929050565b600181811c908216806109ac57607f821691505b6020821081036109cc57634e487b7160e01b600052602260045260246000fd5b50919050565b8082018082111561032a57634e487b7160e01b600052601160045260246000fdfea2646970667358221220a290e1eec07d214f37492c8ba42cddb39db8ff874de6da3133f04756062cb45f64736f6c63430008140033",
  "linkReferences": {},
  "deployedLinkReferences": {}
}